Component: ARM Compiler 5.06 update 4 (build 422) Tool: armlink [4d35d2]

==============================================================================

Section Cross References

    system_stm32f10x.o(i.SetSysClock) refers to system_stm32f10x.o(i.SetSysClockTo72) for SetSysClockTo72
    system_stm32f10x.o(i.SystemCoreClockUpdate) refers to system_stm32f10x.o(.data) for SystemCoreClock
    system_stm32f10x.o(i.SystemInit) refers to system_stm32f10x.o(i.SetSysClock) for SetSysClock
    startup_stm32f10x_md.o(STACK) refers (Special) to heapauxi.o(.text) for __use_two_region_memory
    startup_stm32f10x_md.o(HEAP) refers (Special) to heapauxi.o(.text) for __use_two_region_memory
    startup_stm32f10x_md.o(RESET) refers (Special) to heapauxi.o(.text) for __use_two_region_memory
    startup_stm32f10x_md.o(RESET) refers to startup_stm32f10x_md.o(STACK) for __initial_sp
    startup_stm32f10x_md.o(RESET) refers to startup_stm32f10x_md.o(.text) for Reset_Handler
    startup_stm32f10x_md.o(RESET) refers to stm32f10x_it.o(i.NMI_Handler) for NMI_Handler
    startup_stm32f10x_md.o(RESET) refers to stm32f10x_it.o(i.HardFault_Handler) for HardFault_Handler
    startup_stm32f10x_md.o(RESET) refers to stm32f10x_it.o(i.MemManage_Handler) for MemManage_Handler
    startup_stm32f10x_md.o(RESET) refers to stm32f10x_it.o(i.BusFault_Handler) for BusFault_Handler
    startup_stm32f10x_md.o(RESET) refers to stm32f10x_it.o(i.UsageFault_Handler) for UsageFault_Handler
    startup_stm32f10x_md.o(RESET) refers to stm32f10x_it.o(i.SVC_Handler) for SVC_Handler
    startup_stm32f10x_md.o(RESET) refers to stm32f10x_it.o(i.DebugMon_Handler) for DebugMon_Handler
    startup_stm32f10x_md.o(RESET) refers to stm32f10x_it.o(i.PendSV_Handler) for PendSV_Handler
    startup_stm32f10x_md.o(RESET) refers to stm32f10x_it.o(i.SysTick_Handler) for SysTick_Handler
    startup_stm32f10x_md.o(RESET) refers to usart1_dma.o(i.DMA1_Channel4_IRQHandler) for DMA1_Channel4_IRQHandler
==============================================================================

Removing Unused input sections from the image.

    Removing core_cm3.o(.emb_text), (32 bytes).
    Removing system_stm32f10x.o(i.SystemCoreClockUpdate), (164 bytes).
    Removing system_stm32f10x.o(.data), (20 bytes).
    Removing misc.o(i.NVIC_SystemLPConfig), (32 bytes).
    Removing misc.o(i.SysTick_CLKSourceConfig), (40 bytes).
    Removing stm32f10x_rcc.o(i.RCC_ADCCLKConfig), (24 bytes).
    Removing stm32f10x_rcc.o(i.RCC_APB1PeriphResetCmd), (32 bytes).
    Removing stm32f10x_rcc.o(i.RCC_APB2PeriphResetCmd), (32 bytes).
    Removing stm32f10x_rcc.o(i.RCC_AdjustHSICalibrationValue), (24 bytes).
    Removing stm32f10x_rcc.o(i.RCC_BackupResetCmd), (12 bytes).
    Removing stm32f10x_rcc.o(i.RCC_ClearFlag), (20 bytes).
    Removing stm32f10x_rcc.o(i.RCC_ClearITPendingBit), (12 bytes).
    Removing stm32f10x_rcc.o(i.RCC_ClockSecuritySystemCmd), (12 bytes).
    Removing stm32f10x_rcc.o(i.RCC_DeInit), (76 bytes).
    Removing stm32f10x_rcc.o(i.RCC_GetFlagStatus), (60 bytes).
    Removing stm32f10x_rcc.o(i.RCC_GetITStatus), (24 bytes).
    Removing stm32f10x_rcc.o(i.RCC_GetSYSCLKSource), (16 bytes).
    Removing stm32f10x_rcc.o(i.RCC_HCLKConfig), (24 bytes).
==============================================================================

Image Symbol Table

    Local Symbols

    Symbol Name                              Value     Ov Type        Size  Object(Section)

    ../clib/angel/boardlib.s                 0x00000000   Number         0  boardinit1.o ABSOLUTE
    ../clib/angel/boardlib.s                 0x00000000   Number         0  boardinit2.o ABSOLUTE
    ../clib/angel/boardlib.s                 0x00000000   Number         0  boardshut.o ABSOLUTE
    ../clib/angel/boardlib.s                 0x00000000   Number         0  boardinit3.o ABSOLUTE
    ../clib/angel/handlers.s                 0x00000000   Number         0  __scatter_zi.o ABSOLUTE
    ../clib/angel/handlers.s                 0x00000000   Number         0  __scatter_copy.o ABSOLUTE
    ../clib/angel/kernel.s                   0x00000000   Number         0  __rtentry4.o ABSOLUTE
    ../clib/angel/kernel.s                   0x00000000   Number         0  rtexit.o ABSOLUTE
    ../clib/angel/kernel.s                   0x00000000   Number         0  __rtentry2.o ABSOLUTE
    ../clib/angel/kernel.s                   0x00000000   Number         0  rtexit2.o ABSOLUTE
    ../clib/angel/kernel.s                   0x00000000   Number         0  __rtentry.o ABSOLUTE
    ../clib/angel/rt.s                       0x00000000   Number         0  rt_raise.o ABSOLUTE
    ../clib/angel/scatter.s                  0x00000000   Number         0  __scatter.o ABSOLUTE
    ../clib/angel/startup.s                  0x00000000   Number         0  __main.o ABSOLUTE
    ../clib/angel/sys.s                      0x00000000   Number         0  libspace.o ABSOLUTE
    ../clib/angel/sys.s                      0x00000000   Number         0  indicate_semi.o ABSOLUTE
    ../clib/angel/sys.s                      0x00000000   Number         0  use_no_semi.o ABSOLUTE
    ../clib/angel/sys.s                      0x00000000   Number         0  use_no_semi_2.o ABSOLUTE
    ../clib/angel/sys.s                      0x00000000   Number         0  sys_stackheap_outer.o ABSOLUTE
    ../clib/angel/sysapp.c                   0x00000000   Number         0  sys_command.o ABSOLUTE
    ../clib/angel/sysapp.c                   0x00000000   Number         0  sys_wrch.o ABSOLUTE
    ../clib/armsys.c                         0x00000000   Number         0  _get_argv_nomalloc.o ABSOLUTE
    ../clib/armsys.c                         0x00000000   Number         0  argv_veneer.o ABSOLUTE
    ../clib/armsys.c                         0x00000000   Number         0  argv_veneer.o ABSOLUTE
    ../clib/armsys.c                         0x00000000   Number         0  no_argv.o ABSOLUTE
    ../clib/heapalloc.c                      0x00000000   Number         0  hrguard.o ABSOLUTE
    ../clib/heapaux.c                        0x00000000   Number         0  heapauxi.o ABSOLUTE
    ../clib/libinit.s                        0x00000000   Number         0  libshutdown.o ABSOLUTE
    ../clib/libinit.s                        0x00000000   Number         0  libinit2.o ABSOLUTE
    ../clib/libinit.s                        0x00000000   Number         0  libshutdown2.o ABSOLUTE
    ../clib/libinit.s                        0x00000000   Number         0  libinit.o ABSOLUTE
    ../clib/memcpset.s                       0x00000000   Number         0  rt_memclr_w.o ABSOLUTE
    ../clib/memcpset.s                       0x00000000   Number         0  rt_memcpy_w.o ABSOLUTE
    ../clib/memcpset.s                       0x00000000   Number         0  rt_memcpy_v6.o ABSOLUTE
    ../clib/memcpset.s                       0x00000000   Number         0  rt_memclr.o ABSOLUTE
    ../clib/misc.s                           0x00000000   Number         0  printf_stubs.o ABSOLUTE
    ../clib/printf.c                         0x00000000   Number         0  __printf_flags_ss_wp.o ABSOLUTE
    ../clib/printf.c                         0x00000000   Number         0  __printf_wp.o ABSOLUTE
    ../clib/printf.c                         0x00000000   Number         0  noretval__2printf.o ABSOLUTE
    ../clib/printf.c                         0x00000000   Number         0  __printf_flags_wp.o ABSOLUTE
    ../clib/printf.c                         0x00000000   Number         0  _printf_char_file.o ABSOLUTE
    ../clib/printf.c                         0x00000000   Number         0  _printf_char_common.o ABSOLUTE
    ../clib/printf.c                         0x00000000   Number         0  __printf_nopercent.o ABSOLUTE
    ../clib/printf.c                         0x00000000   Number         0  _printf_intcommon.o ABSOLUTE
    ../clib/printf.c                         0x00000000   Number         0  __2printf.o ABSOLUTE
    ../clib/printf.c                         0x00000000   Number         0  __printf.o ABSOLUTE
    ../clib/printf.c                         0x00000000   Number         0  __printf_ss_wp.o ABSOLUTE
    ../clib/printf.c                         0x00000000   Number         0  _printf_hex_int.o ABSOLUTE
    ../clib/printf.c                         0x00000000   Number         0  _printf_pad.o ABSOLUTE
    ../clib/printf.c                         0x00000000   Number         0  _printf_str.o ABSOLUTE
    ../clib/printf.c                         0x00000000   Number         0  _printf_dec.o ABSOLUTE
    ../clib/printf.c                         0x00000000   Number         0  _printf_hex_ll.o ABSOLUTE
    ../clib/printf.c                         0x00000000   Number         0  _printf_hex_int_ll.o ABSOLUTE
    ../clib/printf.c                         0x00000000   Number         0  _printf_hex_ptr.o ABSOLUTE
    ../clib/printf.c                         0x00000000   Number         0  _printf_hex_int_ptr.o ABSOLUTE
    ../clib/printf.c                         0x00000000   Number         0  _printf_hex_ll_ptr.o ABSOLUTE
    ../clib/printf.c                         0x00000000   Number         0  _printf_hex_int_ll_ptr.o ABSOLUTE
    ../clib/printf.c                         0x00000000   Number         0  _printf_char.o ABSOLUTE
    ../clib/printf.c                         0x00000000   Number         0  __printf_flags.o ABSOLUTE
    ../clib/printf.c                         0x00000000   Number         0  __printf_ss.o ABSOLUTE
    ../clib/printf.c                         0x00000000   Number         0  __printf_flags_ss.o ABSOLUTE
    ../clib/printf_percent.s                 0x00000000   Number         0  _printf_s.o ABSOLUTE
    ../clib/printf_percent.s                 0x00000000   Number         0  _printf_d.o ABSOLUTE
    ../clib/printf_percent.s                 0x00000000   Number         0  _printf_percent.o ABSOLUTE
    ../clib/printf_percent.s                 0x00000000   Number         0  _printf_x.o ABSOLUTE
    ../clib/printf_percent.s                 0x00000000   Number         0  _printf_percent_end.o ABSOLUTE
    ../clib/signal.c                         0x00000000   Number         0  defsig_fpe_inner.o ABSOLUTE
    ../clib/signal.c                         0x00000000   Number         0  defsig_abrt_inner.o ABSOLUTE
    ../clib/signal.c                         0x00000000   Number         0  defsig_rtmem_outer.o ABSOLUTE
    ../clib/signal.c                         0x00000000   Number         0  __raise.o ABSOLUTE
    ../clib/signal.c                         0x00000000   Number         0  defsig_general.o ABSOLUTE
    ../clib/signal.c                         0x00000000   Number         0  defsig_other.o ABSOLUTE
    ../clib/signal.c                         0x00000000   Number         0  defsig_segv_inner.o ABSOLUTE
    ../clib/signal.c                         0x00000000   Number         0  defsig_cppl_inner.o ABSOLUTE
    ../clib/signal.c                         0x00000000   Number         0  defsig_pvfn_inner.o ABSOLUTE
    ../clib/signal.c                         0x00000000   Number         0  defsig_stak_inner.o ABSOLUTE
    ../clib/signal.c                         0x00000000   Number         0  defsig_rtmem_inner.o ABSOLUTE
    ../clib/signal.c                         0x00000000   Number         0  defsig_exit.o ABSOLUTE
    ../clib/signal.c                         0x00000000   Number         0  defsig_rtmem_formal.o ABSOLUTE
    ../clib/signal.c                         0x00000000   Number         0  defsig_rtred_inner.o ABSOLUTE
    ../clib/signal.s                         0x00000000   Number         0  defsig.o ABSOLUTE
    ../clib/stdio.c                          0x00000000   Number         0  ferror_locked.o ABSOLUTE
    ../clib/stdio.c                          0x00000000   Number         0  ferror.o ABSOLUTE
    ../clib/stdlib.c                         0x00000000   Number         0  exit.o ABSOLUTE
    ../clib/string.c                         0x00000000   Number         0  strlen.o ABSOLUTE
    ../fplib/fpinit.s                        0x00000000   Number         0  fpinit.o ABSOLUTE
    CMSIS\\core_cm3.c                        0x00000000   Number         0  core_cm3.o ABSOLUTE
    CMSIS\core_cm3.c                         0x00000000   Number         0  core_cm3.o ABSOLUTE
    CMSIS\startup_stm32f10x_md.s             0x00000000   Number         0  startup_stm32f10x_md.o ABSOLUTE
    CMSIS\system_stm32f10x.c                 0x00000000   Number         0  system_stm32f10x.o ABSOLUTE
    FWLIB\src\misc.c                         0x00000000   Number         0  misc.o ABSOLUTE
    FWLIB\src\stm32f10x_dma.c                0x00000000   Number         0  stm32f10x_dma.o ABSOLUTE
    FWLIB\src\stm32f10x_flash.c              0x00000000   Number         0  stm32f10x_flash.o ABSOLUTE
    FWLIB\src\stm32f10x_gpio.c               0x00000000   Number         0  stm32f10x_gpio.o ABSOLUTE
    FWLIB\src\stm32f10x_rcc.c                0x00000000   Number         0  stm32f10x_rcc.o ABSOLUTE
    FWLIB\src\stm32f10x_tim.c                0x00000000   Number         0  stm32f10x_tim.o ABSOLUTE
    FWLIB\src\stm32f10x_usart.c              0x00000000   Number         0  stm32f10x_usart.o ABSOLUTE
    USER\Fun\device_id.c                     0x00000000   Number         0  device_id.o ABSOLUTE
    USER\Fun\key.c                           0x00000000   Number         0  key.o ABSOLUTE
    USER\Fun\led_run.c                       0x00000000   Number         0  led_run.o ABSOLUTE
    USER\Fun\timer2.c                        0x00000000   Number         0  timer2.o ABSOLUTE
    USER\Fun\usart1_dma.c                    0x00000000   Number         0  usart1_dma.o ABSOLUTE
    USER\app\game_main.c                     0x00000000   Number         0  game_main.o ABSOLUTE
    USER\app\uart_data_x.c                   0x00000000   Number         0  uart_data_x.o ABSOLUTE
    USER\main.c                              0x00000000   Number         0  main.o ABSOLUTE
    USER\stm32f10x_it.c                      0x00000000   Number         0  stm32f10x_it.o ABSOLUTE
    dc.s                                     0x00000000   Number         0  dc.o ABSOLUTE
    RESET                                    0x08000000   Section      236  startup_stm32f10x_md.o(RESET)
    !!!main                                  0x080000ec   Section        8  __main.o(!!!main)
    !!!scatter                               0x080000f4   Section       52  __scatter.o(!!!scatter)
    !!handler_copy                           0x08000128   Section       26  __scatter_copy.o(!!handler_copy)
    !!handler_zi                             0x08000144   Section       28  __scatter_zi.o(!!handler_zi)
    .ARM.Collect$$_printf_percent$$00000000  0x08000160   Section        0  _printf_percent.o(.ARM.Collect$$_printf_percent$$00000000)
    .ARM.Collect$$_printf_percent$$00000009  0x08000160   Section        6  _printf_d.o(.ARM.Collect$$_printf_percent$$00000009)
    .ARM.Collect$$_printf_percent$$00000014  0x08000166   Section        6  _printf_s.o(.ARM.Collect$$_printf_percent$$00000014)
    .ARM.Collect$$_printf_percent$$00000017  0x0800016c   Section        4  _printf_percent_end.o(.ARM.Collect$$_printf_percent$$00000017)
    .ARM.Collect$$libinit$$00000000          0x08000170   Section        2  libinit.o(.ARM.Collect$$libinit$$00000000)
    .ARM.Collect$$libinit$$00000002          0x08000172   Section        0  libinit2.o(.ARM.Collect$$libinit$$00000002)
    .ARM.Collect$$libinit$$00000004          0x08000172   Section        0  libinit2.o(.ARM.Collect$$libinit$$00000004)
    .ARM.Collect$$libinit$$0000000A          0x08000172   Section        0  libinit2.o(.ARM.Collect$$libinit$$0000000A)
    .ARM.Collect$$libinit$$0000000C          0x08000172   Section        0  libinit2.o(.ARM.Collect$$libinit$$0000000C)
    .ARM.Collect$$libinit$$0000000E          0x08000172   Section        0  libinit2.o(.ARM.Collect$$libinit$$0000000E)
    .ARM.Collect$$libinit$$00000011          0x08000172   Section        0  libinit2.o(.ARM.Collect$$libinit$$00000011)
    .ARM.Collect$$libinit$$00000013          0x08000172   Section        0  libinit2.o(.ARM.Collect$$libinit$$00000013)
    .ARM.Collect$$libinit$$00000015          0x08000172   Section        0  libinit2.o(.ARM.Collect$$libinit$$00000015)
    .ARM.Collect$$libinit$$00000017          0x08000172   Section        0  libinit2.o(.ARM.Collect$$libinit$$00000017)
    .ARM.Collect$$libinit$$00000019          0x08000172   Section        0  libinit2.o(.ARM.Collect$$libinit$$00000019)
    .ARM.Collect$$libinit$$0000001B          0x08000172   Section        0  libinit2.o(.ARM.Collect$$libinit$$0000001B)
    .ARM.Collect$$libinit$$0000001D          0x08000172   Section        0  libinit2.o(.ARM.Collect$$libinit$$0000001D)
    .ARM.Collect$$libinit$$0000001F          0x08000172   Section        0  libinit2.o(.ARM.Collect$$libinit$$0000001F)
    .ARM.Collect$$libinit$$00000021          0x08000172   Section        0  libinit2.o(.ARM.Collect$$libinit$$00000021)
    .ARM.Collect$$libinit$$00000023          0x08000172   Section        0  libinit2.o(.ARM.Collect$$libinit$$00000023)
    .ARM.Collect$$libinit$$00000025          0x08000172   Section        0  libinit2.o(.ARM.Collect$$libinit$$00000025)
    .ARM.Collect$$libinit$$0000002C          0x08000172   Section        0  libinit2.o(.ARM.Collect$$libinit$$0000002C)
    .ARM.Collect$$libinit$$0000002E          0x08000172   Section        0  libinit2.o(.ARM.Collect$$libinit$$0000002E)
    .ARM.Collect$$libinit$$00000030          0x08000172   Section        0  libinit2.o(.ARM.Collect$$libinit$$00000030)
    .ARM.Collect$$libinit$$00000032          0x08000172   Section        0  libinit2.o(.ARM.Collect$$libinit$$00000032)
    .ARM.Collect$$libinit$$00000033          0x08000172   Section        2  libinit2.o(.ARM.Collect$$libinit$$00000033)
    .ARM.Collect$$libshutdown$$00000000      0x08000174   Section        2  libshutdown.o(.ARM.Collect$$libshutdown$$00000000)
    .ARM.Collect$$libshutdown$$00000002      0x08000176   Section        0  libshutdown2.o(.ARM.Collect$$libshutdown$$00000002)
    .ARM.Collect$$libshutdown$$00000004      0x08000176   Section        0  libshutdown2.o(.ARM.Collect$$libshutdown$$00000004)
    .ARM.Collect$$libshutdown$$00000007      0x08000176   Section        0  libshutdown2.o(.ARM.Collect$$libshutdown$$00000007)
    .ARM.Collect$$libshutdown$$0000000A      0x08000176   Section        0  libshutdown2.o(.ARM.Collect$$libshutdown$$0000000A)
    .ARM.Collect$$libshutdown$$0000000C      0x08000176   Section        0  libshutdown2.o(.ARM.Collect$$libshutdown$$0000000C)
    .ARM.Collect$$libshutdown$$0000000F      0x08000176   Section        0  libshutdown2.o(.ARM.Collect$$libshutdown$$0000000F)
    .ARM.Collect$$libshutdown$$00000010      0x08000176   Section        2  libshutdown2.o(.ARM.Collect$$libshutdown$$00000010)
    .ARM.Collect$$rtentry$$00000000          0x08000178   Section        0  __rtentry.o(.ARM.Collect$$rtentry$$00000000)
    .ARM.Collect$$rtentry$$00000002          0x08000178   Section        0  __rtentry2.o(.ARM.Collect$$rtentry$$00000002)
    .ARM.Collect$$rtentry$$00000004          0x08000178   Section        6  __rtentry4.o(.ARM.Collect$$rtentry$$00000004)
    .ARM.Collect$$rtentry$$00000009          0x0800017e   Section        0  __rtentry2.o(.ARM.Collect$$rtentry$$00000009)
    .ARM.Collect$$rtentry$$0000000A          0x0800017e   Section        4  __rtentry2.o(.ARM.Collect$$rtentry$$0000000A)
    .ARM.Collect$$rtentry$$0000000C          0x08000182   Section        0  __rtentry2.o(.ARM.Collect$$rtentry$$0000000C)
    .ARM.Collect$$rtentry$$0000000D          0x08000182   Section        8  __rtentry2.o(.ARM.Collect$$rtentry$$0000000D)
    .ARM.Collect$$rtexit$$00000000           0x0800018a   Section        2  rtexit.o(.ARM.Collect$$rtexit$$00000000)
    .ARM.Collect$$rtexit$$00000002           0x0800018c   Section        0  rtexit2.o(.ARM.Collect$$rtexit$$00000002)
    .ARM.Collect$$rtexit$$00000003           0x0800018c   Section        4  rtexit2.o(.ARM.Collect$$rtexit$$00000003)
    .ARM.Collect$$rtexit$$00000004           0x08000190   Section        6  rtexit2.o(.ARM.Collect$$rtexit$$00000004)
    .text                                    0x08000198   Section       64  startup_stm32f10x_md.o(.text)
    .text                                    0x080001d8   Section        2  use_no_semi_2.o(.text)
    .text                                    0x080001dc   Section        0  noretval__2printf.o(.text)
    .text                                    0x080001f4   Section        0  _printf_str.o(.text)
    .text                                    0x08000248   Section        0  _printf_dec.o(.text)
    .text                                    0x080002c0   Section        0  __printf_flags_wp.o(.text)
    .text                                    0x080003f8   Section      138  rt_memcpy_v6.o(.text)
    .text                                    0x08000482   Section      100  rt_memcpy_w.o(.text)
    .text                                    0x080004e6   Section       68  rt_memclr.o(.text)
    .text                                    0x0800052a   Section       78  rt_memclr_w.o(.text)
    .text                                    0x08000578   Section        0  heapauxi.o(.text)
    .text                                    0x0800057e   Section        2  use_no_semi.o(.text)
    .text                                    0x08000580   Section        0  _printf_intcommon.o(.text)
    .text                                    0x08000632   Section        0  _printf_char.o(.text)
    .text                                    0x08000660   Section        0  _printf_char_file.o(.text)
    .text                                    0x08000684   Section        0  _printf_char_common.o(.text)
    _printf_input_char                       0x08000685   Thumb Code    10  _printf_char_common.o(.text)
    .text                                    0x080006b4   Section        0  ferror.o(.text)
    .text                                    0x080006bc   Section       74  sys_stackheap_outer.o(.text)
    .text                                    0x08000706   Section        0  exit.o(.text)
    .text                                    0x08000718   Section        8  libspace.o(.text)
    i.BusFault_Handler                       0x08000720   Section        0  stm32f10x_it.o(i.BusFault_Handler)
    i.CMD_account_callback_register          0x08000724   Section        0  uart_data_x.o(i.CMD_account_callback_register)
    i.CMD_box_info_callback_register         0x08000730   Section        0  uart_data_x.o(i.CMD_box_info_callback_register)
    i.CMD_coin_in_callback_register          0x0800073c   Section        0  uart_data_x.o(i.CMD_coin_in_callback_register)
    i.CMD_coin_phy_callback_register         0x08000748   Section        0  uart_data_x.o(i.CMD_coin_phy_callback_register)
    i.CMD_connect_init                       0x08000754   Section        0  uart_data_x.o(i.CMD_connect_init)
    i.CMD_connect_send                       0x080007bc   Section        0  uart_data_x.o(i.CMD_connect_send)
    i.CMD_device_register_callback_register  0x080008d0   Section        0  uart_data_x.o(i.CMD_device_register_callback_register)
    i.CMD_fault_callback_register            0x080008dc   Section        0  uart_data_x.o(i.CMD_fault_callback_register)
    i.CMD_game_over_callback_register        0x080008e8   Section        0  uart_data_x.o(i.CMD_game_over_callback_register)
    i.CMD_lucky_callback_register            0x080008f4   Section        0  uart_data_x.o(i.CMD_lucky_callback_register)
    i.CMD_menu_read_callback_register        0x08000900   Section        0  uart_data_x.o(i.CMD_menu_read_callback_register)
    i.CMD_menu_set_callback_register         0x0800090c   Section        0  uart_data_x.o(i.CMD_menu_set_callback_register)
    i.CMD_organize_send_data                 0x08000918   Section        0  uart_data_x.o(i.CMD_organize_send_data)
    CMD_organize_send_data                   0x08000919   Thumb Code    64  uart_data_x.o(i.CMD_organize_send_data)
    i.CMD_pay_code_callback_register         0x08000958   Section        0  uart_data_x.o(i.CMD_pay_code_callback_register)
    i.CMD_send_account_rep                   0x08000964   Section        0  uart_data_x.o(i.CMD_send_account_rep)
    i.CMD_send_box_info                      0x0800098c   Section        0  uart_data_x.o(i.CMD_send_box_info)
    i.CMD_send_coin_in_rep                   0x080009b0   Section        0  uart_data_x.o(i.CMD_send_coin_in_rep)
    i.CMD_send_coin_phy                      0x080009d8   Section        0  uart_data_x.o(i.CMD_send_coin_phy)
    i.CMD_send_device_register               0x08000a00   Section        0  uart_data_x.o(i.CMD_send_device_register)
    i.CMD_send_game_over                     0x08000a28   Section        0  uart_data_x.o(i.CMD_send_game_over)
    i.CMD_send_head                          0x08000a50   Section        0  uart_data_x.o(i.CMD_send_head)
    i.CMD_send_lucky_rep                     0x08000ab4   Section        0  uart_data_x.o(i.CMD_send_lucky_rep)
    i.CMD_send_menu_read_rep                 0x08000adc   Section        0  uart_data_x.o(i.CMD_send_menu_read_rep)
    i.CMD_send_menu_set_rep                  0x08000b04   Section        0  uart_data_x.o(i.CMD_send_menu_set_rep)
    i.CMD_send_pay_code                      0x08000b2c   Section        0  uart_data_x.o(i.CMD_send_pay_code)
    i.CMD_send_status                        0x08000b50   Section        0  uart_data_x.o(i.CMD_send_status)
    i.CMD_send_sum                           0x08000b78   Section        0  uart_data_x.o(i.CMD_send_sum)
    CMD_send_sum                             0x08000b79   Thumb Code    30  uart_data_x.o(i.CMD_send_sum)
    i.CMD_send_tail                          0x08000b98   Section        0  uart_data_x.o(i.CMD_send_tail)
    i.CMD_send_universal_config_get_rep      0x08000be4   Section        0  uart_data_x.o(i.CMD_send_universal_config_get_rep)
    i.CMD_state_callback_register            0x08000c0c   Section        0  uart_data_x.o(i.CMD_state_callback_register)
    i.CMD_universal_config_get_callback_register 0x08000c18   Section        0  uart_data_x.o(i.CMD_universal_config_get_callback_register)
    i.CMD_update_check_callback_register     0x08000c24   Section        0  uart_data_x.o(i.CMD_update_check_callback_register)
    i.CMD_update_get_data_callback_register  0x08000c30   Section        0  uart_data_x.o(i.CMD_update_get_data_callback_register)
    i.DMA1_Channel4_IRQHandler               0x08000c3c   Section        0  usart1_dma.o(i.DMA1_Channel4_IRQHandler)
    i.DMA_ClearFlag                          0x08000c68   Section        0  stm32f10x_dma.o(i.DMA_ClearFlag)
    i.DMA_Cmd                                0x08000c84   Section        0  stm32f10x_dma.o(i.DMA_Cmd)
    i.DMA_DeInit                             0x08000c9c   Section        0  stm32f10x_dma.o(i.DMA_DeInit)
    i.DMA_GetCurrDataCounter                 0x08000de8   Section        0  stm32f10x_dma.o(i.DMA_GetCurrDataCounter)
    i.DMA_GetITStatus                        0x08000df0   Section        0  stm32f10x_dma.o(i.DMA_GetITStatus)
    i.DMA_ITConfig                           0x08000e1c   Section        0  stm32f10x_dma.o(i.DMA_ITConfig)
    i.DMA_Init                               0x08000e2e   Section        0  stm32f10x_dma.o(i.DMA_Init)
    i.DebugMon_Handler                       0x08000e6a   Section        0  stm32f10x_it.o(i.DebugMon_Handler)
    i.GPIO_Init                              0x08000e6c   Section        0  stm32f10x_gpio.o(i.GPIO_Init)
    i.GPIO_ReadInputDataBit                  0x08000f82   Section        0  stm32f10x_gpio.o(i.GPIO_ReadInputDataBit)
    i.GPIO_WriteBit                          0x08000f94   Section        0  stm32f10x_gpio.o(i.GPIO_WriteBit)
    i.HardFault_Handler                      0x08000f9e   Section        0  stm32f10x_it.o(i.HardFault_Handler)
    i.MemManage_Handler                      0x08000fa2   Section        0  stm32f10x_it.o(i.MemManage_Handler)
    i.NMI_Handler                            0x08000fa6   Section        0  stm32f10x_it.o(i.NMI_Handler)
    i.NVIC_Init                              0x08000fa8   Section        0  misc.o(i.NVIC_Init)
    i.NVIC_PriorityGroupConfig               0x08001018   Section        0  misc.o(i.NVIC_PriorityGroupConfig)
    i.NVIC_SetVectorTable                    0x0800102c   Section        0  misc.o(i.NVIC_SetVectorTable)
    i.PendSV_Handler                         0x08001040   Section        0  stm32f10x_it.o(i.PendSV_Handler)
    i.RCC_AHBPeriphClockCmd                  0x08001044   Section        0  stm32f10x_rcc.o(i.RCC_AHBPeriphClockCmd)
    i.RCC_APB1PeriphClockCmd                 0x08001064   Section        0  stm32f10x_rcc.o(i.RCC_APB1PeriphClockCmd)
    i.RCC_APB2PeriphClockCmd                 0x08001084   Section        0  stm32f10x_rcc.o(i.RCC_APB2PeriphClockCmd)
    i.RCC_GetClocksFreq                      0x080010a4   Section        0  stm32f10x_rcc.o(i.RCC_GetClocksFreq)
    i.SVC_Handler                            0x08001178   Section        0  stm32f10x_it.o(i.SVC_Handler)
    i.SetSysClock                            0x0800117a   Section        0  system_stm32f10x.o(i.SetSysClock)
    SetSysClock                              0x0800117b   Thumb Code     8  system_stm32f10x.o(i.SetSysClock)
    i.SetSysClockTo72                        0x08001184   Section        0  system_stm32f10x.o(i.SetSysClockTo72)
    SetSysClockTo72                          0x08001185   Thumb Code   214  system_stm32f10x.o(i.SetSysClockTo72)
    i.SysTick_Handler                        0x08001264   Section        0  stm32f10x_it.o(i.SysTick_Handler)
    i.SystemInit                             0x08001268   Section        0  system_stm32f10x.o(i.SystemInit)
    i.TIM2_IRQHandler                        0x080012c8   Section        0  timer2.o(i.TIM2_IRQHandler)
    i.TIM_ClearITPendingBit                  0x08001390   Section        0  stm32f10x_tim.o(i.TIM_ClearITPendingBit)
    i.TIM_Cmd                                0x08001396   Section        0  stm32f10x_tim.o(i.TIM_Cmd)
    i.TIM_GetFlagStatus                      0x080013ae   Section        0  stm32f10x_tim.o(i.TIM_GetFlagStatus)
    i.TIM_ITConfig                           0x080013c0   Section        0  stm32f10x_tim.o(i.TIM_ITConfig)
    i.TIM_TimeBaseInit                       0x080013d4   Section        0  stm32f10x_tim.o(i.TIM_TimeBaseInit)
    i.USART1_DMA_set_init                    0x08001478   Section        0  usart1_dma.o(i.USART1_DMA_set_init)
    USART1_DMA_set_init                      0x08001479   Thumb Code   224  usart1_dma.o(i.USART1_DMA_set_init)
    i.USART1_IRQHandler                      0x08001568   Section        0  usart1_dma.o(i.USART1_IRQHandler)
    i.USART_ClearFlag                        0x08001590   Section        0  stm32f10x_usart.o(i.USART_ClearFlag)
    i.USART_Cmd                              0x080015a2   Section        0  stm32f10x_usart.o(i.USART_Cmd)
    i.USART_DMACmd                           0x080015ba   Section        0  stm32f10x_usart.o(i.USART_DMACmd)
    i.USART_GetFlagStatus                    0x080015cc   Section        0  stm32f10x_usart.o(i.USART_GetFlagStatus)
    i.USART_GetITStatus                      0x080015e6   Section        0  stm32f10x_usart.o(i.USART_GetITStatus)
    i.USART_ITConfig                         0x0800163a   Section        0  stm32f10x_usart.o(i.USART_ITConfig)
    i.USART_Init                             0x08001684   Section        0  stm32f10x_usart.o(i.USART_Init)
    i.USART_ReceiveData                      0x0800175c   Section        0  stm32f10x_usart.o(i.USART_ReceiveData)
    i.USART_SendData                         0x08001766   Section        0  stm32f10x_usart.o(i.USART_SendData)
    i.UsageFault_Handler                     0x0800176e   Section        0  stm32f10x_it.o(i.UsageFault_Handler)
    i._is_digit                              0x08001772   Section        0  __printf_wp.o(i._is_digit)
    i._sys_exit                              0x08001780   Section        0  usart1_dma.o(i._sys_exit)
    i.data_write_reverse                     0x08001784   Section        0  main.o(i.data_write_reverse)
    i.decode_uart_use_data                   0x080017a8   Section        0  uart_data_x.o(i.decode_uart_use_data)
    decode_uart_use_data                     0x080017a9   Thumb Code   998  uart_data_x.o(i.decode_uart_use_data)
    i.device_id_init                         0x08001bd0   Section        0  device_id.o(i.device_id_init)
    i.fputc                                  0x08001bf4   Section        0  usart1_dma.o(i.fputc)
    i.game_main_change_sta                   0x08001c18   Section        0  game_main.o(i.game_main_change_sta)
    i.game_main_get_save_data                0x08001c24   Section        0  game_main.o(i.game_main_get_save_data)
    game_main_get_save_data                  0x08001c25   Thumb Code    86  game_main.o(i.game_main_get_save_data)
    i.game_main_init                         0x08001c88   Section        0  game_main.o(i.game_main_init)
    i.game_main_reply_account                0x08001cac   Section        0  game_main.o(i.game_main_reply_account)
    game_main_reply_account                  0x08001cad   Thumb Code   102  game_main.o(i.game_main_reply_account)
    i.game_main_reply_coin                   0x08001d18   Section        0  game_main.o(i.game_main_reply_coin)
    game_main_reply_coin                     0x08001d19   Thumb Code    36  game_main.o(i.game_main_reply_coin)
    i.game_main_reply_state                  0x08001d40   Section        0  game_main.o(i.game_main_reply_state)
    game_main_reply_state                    0x08001d41   Thumb Code    68  game_main.o(i.game_main_reply_state)
    i.game_main_reply_universal_config_get   0x08001d8c   Section        0  game_main.o(i.game_main_reply_universal_config_get)
    game_main_reply_universal_config_get     0x08001d8d   Thumb Code    34  game_main.o(i.game_main_reply_universal_config_get)
    i.game_main_run                          0x08001db4   Section        0  game_main.o(i.game_main_run)
    i.game_main_send_box_info                0x08001f2c   Section        0  game_main.o(i.game_main_send_box_info)
    game_main_send_box_info                  0x08001f2d   Thumb Code    14  game_main.o(i.game_main_send_box_info)
    i.game_main_send_coin_phy                0x08001f58   Section        0  game_main.o(i.game_main_send_coin_phy)
    game_main_send_coin_phy                  0x08001f59   Thumb Code    46  game_main.o(i.game_main_send_coin_phy)
    i.game_main_send_device_register         0x08001f8c   Section        0  game_main.o(i.game_main_send_device_register)
    game_main_send_device_register           0x08001f8d   Thumb Code   102  game_main.o(i.game_main_send_device_register)
    i.game_main_send_game_over               0x08002010   Section        0  game_main.o(i.game_main_send_game_over)
    game_main_send_game_over                 0x08002011   Thumb Code    82  game_main.o(i.game_main_send_game_over)
    i.game_main_send_lucky                   0x0800206c   Section        0  game_main.o(i.game_main_send_lucky)
    game_main_send_lucky                     0x0800206d   Thumb Code    36  game_main.o(i.game_main_send_lucky)
    i.game_main_send_menu_read               0x08002094   Section        0  game_main.o(i.game_main_send_menu_read)
    game_main_send_menu_read                 0x08002095   Thumb Code   104  game_main.o(i.game_main_send_menu_read)
    i.game_main_send_menu_set                0x08002100   Section        0  game_main.o(i.game_main_send_menu_set)
    game_main_send_menu_set                  0x08002101   Thumb Code    30  game_main.o(i.game_main_send_menu_set)
    i.game_main_send_pay_code                0x08002124   Section        0  game_main.o(i.game_main_send_pay_code)
    game_main_send_pay_code                  0x08002125   Thumb Code     8  game_main.o(i.game_main_send_pay_code)
    i.game_main_time_check_100Ms             0x0800212c   Section        0  game_main.o(i.game_main_time_check_100Ms)
    game_main_time_check_100Ms               0x0800212d   Thumb Code   194  game_main.o(i.game_main_time_check_100Ms)
    i.game_main_trans_id_get                 0x080021f4   Section        0  game_main.o(i.game_main_trans_id_get)
    game_main_trans_id_get                   0x080021f5   Thumb Code    32  game_main.o(i.game_main_trans_id_get)
    i.game_main_uart_account_callback        0x08002218   Section        0  game_main.o(i.game_main_uart_account_callback)
    game_main_uart_account_callback          0x08002219   Thumb Code    30  game_main.o(i.game_main_uart_account_callback)
    i.game_main_uart_box_info_callback       0x08002250   Section        0  game_main.o(i.game_main_uart_box_info_callback)
    game_main_uart_box_info_callback         0x08002251   Thumb Code   178  game_main.o(i.game_main_uart_box_info_callback)
    i.game_main_uart_coin_in_callback        0x08002380   Section        0  game_main.o(i.game_main_uart_coin_in_callback)
    game_main_uart_coin_in_callback          0x08002381   Thumb Code   254  game_main.o(i.game_main_uart_coin_in_callback)
    i.game_main_uart_coin_phy_callback       0x08002518   Section        0  game_main.o(i.game_main_uart_coin_phy_callback)
    game_main_uart_coin_phy_callback         0x08002519   Thumb Code    44  game_main.o(i.game_main_uart_coin_phy_callback)
    i.game_main_uart_connet_callback         0x0800256c   Section        0  game_main.o(i.game_main_uart_connet_callback)
    game_main_uart_connet_callback           0x0800256d   Thumb Code    76  game_main.o(i.game_main_uart_connet_callback)
    i.game_main_uart_device_register_callback 0x0800260c   Section        0  game_main.o(i.game_main_uart_device_register_callback)
    game_main_uart_device_register_callback  0x0800260d   Thumb Code    82  game_main.o(i.game_main_uart_device_register_callback)
    i.game_main_uart_fault_callback          0x080026d0   Section        0  game_main.o(i.game_main_uart_fault_callback)
    game_main_uart_fault_callback            0x080026d1   Thumb Code    20  game_main.o(i.game_main_uart_fault_callback)
    i.game_main_uart_game_over_callback      0x08002708   Section        0  game_main.o(i.game_main_uart_game_over_callback)
    game_main_uart_game_over_callback        0x08002709   Thumb Code    48  game_main.o(i.game_main_uart_game_over_callback)
    i.game_main_uart_init                    0x08002774   Section        0  game_main.o(i.game_main_uart_init)
    game_main_uart_init                      0x08002775   Thumb Code   122  game_main.o(i.game_main_uart_init)
    i.game_main_uart_lucky_callback          0x08002838   Section        0  game_main.o(i.game_main_uart_lucky_callback)
    game_main_uart_lucky_callback            0x08002839   Thumb Code   172  game_main.o(i.game_main_uart_lucky_callback)
    i.game_main_uart_menu_read_callback      0x08002950   Section        0  game_main.o(i.game_main_uart_menu_read_callback)
    game_main_uart_menu_read_callback        0x08002951   Thumb Code    96  game_main.o(i.game_main_uart_menu_read_callback)
    i.game_main_uart_menu_set_callback       0x080029fc   Section        0  game_main.o(i.game_main_uart_menu_set_callback)
    game_main_uart_menu_set_callback         0x080029fd   Thumb Code   148  game_main.o(i.game_main_uart_menu_set_callback)
    i.game_main_uart_pay_code_callback       0x08002b4c   Section        0  game_main.o(i.game_main_uart_pay_code_callback)
    game_main_uart_pay_code_callback         0x08002b4d   Thumb Code    72  game_main.o(i.game_main_uart_pay_code_callback)
    i.game_main_uart_state_callback          0x08002bd0   Section        0  game_main.o(i.game_main_uart_state_callback)
    game_main_uart_state_callback            0x08002bd1   Thumb Code    52  game_main.o(i.game_main_uart_state_callback)
    i.game_main_uart_universal_config_get_callback 0x08002c5c   Section        0  game_main.o(i.game_main_uart_universal_config_get_callback)
    game_main_uart_universal_config_get_callback 0x08002c5d   Thumb Code    38  game_main.o(i.game_main_uart_universal_config_get_callback)
    i.game_main_uart_update_check_callback   0x08002ca8   Section        0  game_main.o(i.game_main_uart_update_check_callback)
    game_main_uart_update_check_callback     0x08002ca9   Thumb Code    66  game_main.o(i.game_main_uart_update_check_callback)
    i.game_main_uart_update_get_data_callback 0x08002d5c   Section        0  game_main.o(i.game_main_uart_update_get_data_callback)
    game_main_uart_update_get_data_callback  0x08002d5d   Thumb Code    40  game_main.o(i.game_main_uart_update_get_data_callback)
    i.key_check                              0x08002dd0   Section        0  key.o(i.key_check)
    i.key_clear_all                          0x08002e44   Section        0  key.o(i.key_clear_all)
    i.key_init                               0x08002e50   Section        0  key.o(i.key_init)
    i.key_press                              0x08002e8c   Section        0  key.o(i.key_press)
    i.led_run_init                           0x08002eb4   Section        0  led_run.o(i.led_run_init)
    i.led_run_set                            0x08002f04   Section        0  led_run.o(i.led_run_set)
    i.main                                   0x08002f2c   Section        0  main.o(i.main)
    i.main_data_xor                          0x08002fb0   Section        0  main.o(i.main_data_xor)
    i.timer2_100ms_Game_sta_get              0x08002fcc   Section        0  timer2.o(i.timer2_100ms_Game_sta_get)
    i.timer2_1ms_Game_sta_get                0x08002fe4   Section        0  timer2.o(i.timer2_1ms_Game_sta_get)
    i.timer2_500ms_sta_get                   0x08002ffc   Section        0  timer2.o(i.timer2_500ms_sta_get)
    i.timer2_init                            0x08003014   Section        0  timer2.o(i.timer2_init)
    i.uart1_dma_get_data_check               0x080030cc   Section        0  usart1_dma.o(i.uart1_dma_get_data_check)
    i.uart1_dma_init                         0x08003134   Section        0  usart1_dma.o(i.uart1_dma_init)
    i.uart1_dma_recv_data                    0x08003264   Section        0  usart1_dma.o(i.uart1_dma_recv_data)
    i.uart1_dma_send_data_check              0x080032e0   Section        0  usart1_dma.o(i.uart1_dma_send_data_check)
    i.uart1_dma_send_data_push               0x0800334c   Section        0  usart1_dma.o(i.uart1_dma_send_data_push)
    i.uart1_get_data                         0x08003384   Section        0  usart1_dma.o(i.uart1_get_data)
    i.uart_data_decode                       0x080033ac   Section        0  uart_data_x.o(i.uart_data_decode)
    uart_data_decode                         0x080033ad   Thumb Code   266  uart_data_x.o(i.uart_data_decode)
    i.uart_data_x_get_buff_get               0x080034c0   Section        0  uart_data_x.o(i.uart_data_x_get_buff_get)
    i.uart_data_x_init                       0x080034c8   Section        0  uart_data_x.o(i.uart_data_x_init)
    i.uart_data_x_startup_decode             0x080034e8   Section        0  uart_data_x.o(i.uart_data_x_startup_decode)
    i.uart_data_x_timer_1ms                  0x08003504   Section        0  uart_data_x.o(i.uart_data_x_timer_1ms)
    i.uart_dma_send_enable                   0x0800353c   Section        0  usart1_dma.o(i.uart_dma_send_enable)
    .constdata                               0x08003554   Section        5  uart_data_x.o(.constdata)
    .constdata                               0x08003559   Section       17  __printf_flags_wp.o(.constdata)
    maptable                                 0x08003559   Data          17  __printf_flags_wp.o(.constdata)
    .data                                    0x20000000   Section       20  stm32f10x_rcc.o(.data)
    APBAHBPrescTable                         0x20000000   Data          16  stm32f10x_rcc.o(.data)
    ADCPrescTable                            0x20000010   Data           4  stm32f10x_rcc.o(.data)
    .data                                    0x20000014   Section        1  main.o(.data)
    main_led_run_state                       0x20000014   Data           1  main.o(.data)
    .data                                    0x20000018   Section       20  usart1_dma.o(.data)
    .data                                    0x2000002c   Section       10  timer2.o(.data)
    .data                                    0x20000036   Section        4  key.o(.data)
    .data                                    0x2000003c   Section       78  uart_data_x.o(.data)
    CMD_connect_ver                          0x2000007c   Data           4  uart_data_x.o(.data)
    CMD_connect_product_id                   0x20000080   Data           4  uart_data_x.o(.data)
    CMD_connect_p_all                        0x20000084   Data           1  uart_data_x.o(.data)
    CMD_connect_p_use                        0x20000085   Data           1  uart_data_x.o(.data)
    CMD_connect_device_type                  0x20000086   Data           2  uart_data_x.o(.data)
    CMD_connect_soft_version                 0x20000088   Data           2  uart_data_x.o(.data)
    .bss                                     0x2000008c   Section      896  usart1_dma.o(.bss)
    .bss                                     0x2000040c   Section       12  device_id.o(.bss)
    .bss                                     0x20000418   Section      756  game_main.o(.bss)
    .bss                                     0x2000070c   Section      532  uart_data_x.o(.bss)
    uart_data_x_config                       0x2000070c   Data         260  uart_data_x.o(.bss)
    CMD_connect_device_id                    0x20000910   Data          16  uart_data_x.o(.bss)
    .bss                                     0x20000920   Section       96  libspace.o(.bss)
    HEAP                                     0x20000980   Section      512  startup_stm32f10x_md.o(HEAP)
    Heap_Mem                                 0x20000980   Data         512  startup_stm32f10x_md.o(HEAP)
    STACK                                    0x20000b80   Section     1024  startup_stm32f10x_md.o(STACK)
    Stack_Mem                                0x20000b80   Data        1024  startup_stm32f10x_md.o(STACK)
    __initial_sp                             0x20000f80   Data           0  startup_stm32f10x_md.o(STACK)

    Global Symbols

    Symbol Name                              Value     Ov Type        Size  Object(Section)

    BuildAttributes$$THM_ISAv4$P$D$K$B$S$PE$A:L22UL41UL21$X:L11$S22US41US21$IEEE1$IW$USESV6$~STKCKD$USESV7$~SHL$OSPACE$ROPI$EBA8$UX$STANDARDLIB$REQ8$PRES8$EABIv2 0x00000000   Number         0  anon$$obj.o ABSOLUTE
    __ARM_use_no_argv                        0x00000000   Number         0  main.o ABSOLUTE
    _printf_flags                            0x00000000   Number         0  printf_stubs.o ABSOLUTE
    _printf_return_value                     0x00000000   Number         0  printf_stubs.o ABSOLUTE
    _printf_sizespec                         0x00000000   Number         0  printf_stubs.o ABSOLUTE
    _printf_widthprec                        0x00000000   Number         0  printf_stubs.o ABSOLUTE
    __ARM_exceptions_init                     - Undefined Weak Reference
    __alloca_initialize                       - Undefined Weak Reference
    __arm_preinit_                            - Undefined Weak Reference
    __cpp_initialize__aeabi_                  - Undefined Weak Reference
    __cxa_finalize                            - Undefined Weak Reference
    __rt_locale                               - Undefined Weak Reference
    __sigvec_lookup                           - Undefined Weak Reference
    _atexit_init                              - Undefined Weak Reference
    _call_atexit_fns                          - Undefined Weak Reference
    _clock_init                               - Undefined Weak Reference
    _fp_trap_init                             - Undefined Weak Reference
    _fp_trap_shutdown                         - Undefined Weak Reference
    _get_lc_collate                           - Undefined Weak Reference
    _get_lc_ctype                             - Undefined Weak Reference
    _get_lc_monetary                          - Undefined Weak Reference
    _get_lc_numeric                           - Undefined Weak Reference
    _get_lc_time                              - Undefined Weak Reference
    _getenv_init                              - Undefined Weak Reference
    _handle_redirection                       - Undefined Weak Reference
    _init_alloc                               - Undefined Weak Reference
    _init_user_alloc                          - Undefined Weak Reference
    _initio                                   - Undefined Weak Reference
    _mutex_acquire                            - Undefined Weak Reference
    _mutex_release                            - Undefined Weak Reference
    _printf_mbtowc                            - Undefined Weak Reference
    _printf_truncate_signed                   - Undefined Weak Reference
    _printf_truncate_unsigned                 - Undefined Weak Reference
    _rand_init                                - Undefined Weak Reference
    _signal_finish                            - Undefined Weak Reference
    _signal_init                              - Undefined Weak Reference
    _terminate_alloc                          - Undefined Weak Reference
    _terminate_user_alloc                     - Undefined Weak Reference
    _terminateio                              - Undefined Weak Reference
    __Vectors_Size                           0x000000ec   Number         0  startup_stm32f10x_md.o ABSOLUTE
    __Vectors                                0x08000000   Data           4  startup_stm32f10x_md.o(RESET)
    __Vectors_End                            0x080000ec   Data           0  startup_stm32f10x_md.o(RESET)
    __main                                   0x080000ed   Thumb Code     8  __main.o(!!!main)
    __scatterload                            0x080000f5   Thumb Code     0  __scatter.o(!!!scatter)
    __scatterload_rt2                        0x080000f5   Thumb Code    44  __scatter.o(!!!scatter)
    __scatterload_rt2_thumb_only             0x080000f5   Thumb Code     0  __scatter.o(!!!scatter)
    __scatterload_null                       0x08000103   Thumb Code     0  __scatter.o(!!!scatter)
    __scatterload_copy                       0x08000129   Thumb Code    26  __scatter_copy.o(!!handler_copy)
    __scatterload_zeroinit                   0x08000145   Thumb Code    28  __scatter_zi.o(!!handler_zi)
    _printf_d                                0x08000161   Thumb Code     0  _printf_d.o(.ARM.Collect$$_printf_percent$$00000009)
    _printf_percent                          0x08000161   Thumb Code     0  _printf_percent.o(.ARM.Collect$$_printf_percent$$00000000)
    _printf_s                                0x08000167   Thumb Code     0  _printf_s.o(.ARM.Collect$$_printf_percent$$00000014)
    _printf_percent_end                      0x0800016d   Thumb Code     0  _printf_percent_end.o(.ARM.Collect$$_printf_percent$$00000017)
    __rt_lib_init                            0x08000171   Thumb Code     0  libinit.o(.ARM.Collect$$libinit$$00000000)
    __rt_lib_init_alloca_1                   0x08000173   Thumb Code     0  libinit2.o(.ARM.Collect$$libinit$$0000002E)
    __rt_lib_init_argv_1                     0x08000173   Thumb Code     0  libinit2.o(.ARM.Collect$$libinit$$0000002C)
    __rt_lib_init_atexit_1                   0x08000173   Thumb Code     0  libinit2.o(.ARM.Collect$$libinit$$0000001B)
    __rt_lib_init_clock_1                    0x08000173   Thumb Code     0  libinit2.o(.ARM.Collect$$libinit$$00000021)
    __rt_lib_init_cpp_1                      0x08000173   Thumb Code     0  libinit2.o(.ARM.Collect$$libinit$$00000032)
    __rt_lib_init_exceptions_1               0x08000173   Thumb Code     0  libinit2.o(.ARM.Collect$$libinit$$00000030)
    __rt_lib_init_fp_1                       0x08000173   Thumb Code     0  libinit2.o(.ARM.Collect$$libinit$$00000002)
    __rt_lib_init_fp_trap_1                  0x08000173   Thumb Code     0  libinit2.o(.ARM.Collect$$libinit$$0000001F)
    __rt_lib_init_getenv_1                   0x08000173   Thumb Code     0  libinit2.o(.ARM.Collect$$libinit$$00000023)
    __rt_lib_init_heap_1                     0x08000173   Thumb Code     0  libinit2.o(.ARM.Collect$$libinit$$0000000A)
    __rt_lib_init_lc_collate_1               0x08000173   Thumb Code     0  libinit2.o(.ARM.Collect$$libinit$$00000011)
    __rt_lib_init_lc_ctype_1                 0x08000173   Thumb Code     0  libinit2.o(.ARM.Collect$$libinit$$00000013)
    __rt_lib_init_lc_monetary_1              0x08000173   Thumb Code     0  libinit2.o(.ARM.Collect$$libinit$$00000015)
    __rt_lib_init_lc_numeric_1               0x08000173   Thumb Code     0  libinit2.o(.ARM.Collect$$libinit$$00000017)
    __rt_lib_init_lc_time_1                  0x08000173   Thumb Code     0  libinit2.o(.ARM.Collect$$libinit$$00000019)
    __rt_lib_init_preinit_1                  0x08000173   Thumb Code     0  libinit2.o(.ARM.Collect$$libinit$$00000004)
    __rt_lib_init_rand_1                     0x08000173   Thumb Code     0  libinit2.o(.ARM.Collect$$libinit$$0000000E)
    __rt_lib_init_return                     0x08000173   Thumb Code     0  libinit2.o(.ARM.Collect$$libinit$$00000033)
    __rt_lib_init_signal_1                   0x08000173   Thumb Code     0  libinit2.o(.ARM.Collect$$libinit$$0000001D)
    __rt_lib_init_stdio_1                    0x08000173   Thumb Code     0  libinit2.o(.ARM.Collect$$libinit$$00000025)
    __rt_lib_init_user_alloc_1               0x08000173   Thumb Code     0  libinit2.o(.ARM.Collect$$libinit$$0000000C)
    __rt_lib_shutdown                        0x08000175   Thumb Code     0  libshutdown.o(.ARM.Collect$$libshutdown$$00000000)
    __rt_lib_shutdown_cpp_1                  0x08000177   Thumb Code     0  libshutdown2.o(.ARM.Collect$$libshutdown$$00000002)
    __rt_lib_shutdown_fp_trap_1              0x08000177   Thumb Code     0  libshutdown2.o(.ARM.Collect$$libshutdown$$00000007)
    __rt_lib_shutdown_heap_1                 0x08000177   Thumb Code     0  libshutdown2.o(.ARM.Collect$$libshutdown$$0000000F)
    __rt_lib_shutdown_return                 0x08000177   Thumb Code     0  libshutdown2.o(.ARM.Collect$$libshutdown$$00000010)
    __rt_lib_shutdown_signal_1               0x08000177   Thumb Code     0  libshutdown2.o(.ARM.Collect$$libshutdown$$0000000A)
    __rt_lib_shutdown_stdio_1                0x08000177   Thumb Code     0  libshutdown2.o(.ARM.Collect$$libshutdown$$00000004)
    __rt_lib_shutdown_user_alloc_1           0x08000177   Thumb Code     0  libshutdown2.o(.ARM.Collect$$libshutdown$$0000000C)
    __rt_entry                               0x08000179   Thumb Code     0  __rtentry.o(.ARM.Collect$$rtentry$$00000000)
    __rt_entry_presh_1                       0x08000179   Thumb Code     0  __rtentry2.o(.ARM.Collect$$rtentry$$00000002)
    __rt_entry_sh                            0x08000179   Thumb Code     0  __rtentry4.o(.ARM.Collect$$rtentry$$00000004)
    __rt_entry_li                            0x0800017f   Thumb Code     0  __rtentry2.o(.ARM.Collect$$rtentry$$0000000A)
    __rt_entry_postsh_1                      0x0800017f   Thumb Code     0  __rtentry2.o(.ARM.Collect$$rtentry$$00000009)
    __rt_entry_main                          0x08000183   Thumb Code     0  __rtentry2.o(.ARM.Collect$$rtentry$$0000000D)
    __rt_entry_postli_1                      0x08000183   Thumb Code     0  __rtentry2.o(.ARM.Collect$$rtentry$$0000000C)
    __rt_exit                                0x0800018b   Thumb Code     0  rtexit.o(.ARM.Collect$$rtexit$$00000000)
    __rt_exit_ls                             0x0800018d   Thumb Code     0  rtexit2.o(.ARM.Collect$$rtexit$$00000003)
    __rt_exit_prels_1                        0x0800018d   Thumb Code     0  rtexit2.o(.ARM.Collect$$rtexit$$00000002)
    __rt_exit_exit                           0x08000191   Thumb Code     0  rtexit2.o(.ARM.Collect$$rtexit$$00000004)
    Reset_Handler                            0x08000199   Thumb Code     8  startup_stm32f10x_md.o(.text)
    ADC1_2_IRQHandler                        0x080001b3   Thumb Code     0  startup_stm32f10x_md.o(.text)
    CAN1_RX1_IRQHandler                      0x080001b3   Thumb Code     0  startup_stm32f10x_md.o(.text)
    CAN1_SCE_IRQHandler                      0x080001b3   Thumb Code     0  startup_stm32f10x_md.o(.text)
    DMA1_Channel1_IRQHandler                 0x080001b3   Thumb Code     0  startup_stm32f10x_md.o(.text)
    DMA1_Channel2_IRQHandler                 0x080001b3   Thumb Code     0  startup_stm32f10x_md.o(.text)
    DMA1_Channel3_IRQHandler                 0x080001b3   Thumb Code     0  startup_stm32f10x_md.o(.text)
    DMA1_Channel5_IRQHandler                 0x080001b3   Thumb Code     0  startup_stm32f10x_md.o(.text)
    DMA1_Channel6_IRQHandler                 0x080001b3   Thumb Code     0  startup_stm32f10x_md.o(.text)
    DMA1_Channel7_IRQHandler                 0x080001b3   Thumb Code     0  startup_stm32f10x_md.o(.text)
    EXTI0_IRQHandler                         0x080001b3   Thumb Code     0  startup_stm32f10x_md.o(.text)
    EXTI15_10_IRQHandler                     0x080001b3   Thumb Code     0  startup_stm32f10x_md.o(.text)
    EXTI1_IRQHandler                         0x080001b3   Thumb Code     0  startup_stm32f10x_md.o(.text)
    EXTI2_IRQHandler                         0x080001b3   Thumb Code     0  startup_stm32f10x_md.o(.text)
    EXTI3_IRQHandler                         0x080001b3   Thumb Code     0  startup_stm32f10x_md.o(.text)
    EXTI4_IRQHandler                         0x080001b3   Thumb Code     0  startup_stm32f10x_md.o(.text)
    EXTI9_5_IRQHandler                       0x080001b3   Thumb Code     0  startup_stm32f10x_md.o(.text)
    FLASH_IRQHandler                         0x080001b3   Thumb Code     0  startup_stm32f10x_md.o(.text)
    I2C1_ER_IRQHandler                       0x080001b3   Thumb Code     0  startup_stm32f10x_md.o(.text)
    I2C1_EV_IRQHandler                       0x080001b3   Thumb Code     0  startup_stm32f10x_md.o(.text)
    I2C2_ER_IRQHandler                       0x080001b3   Thumb Code     0  startup_stm32f10x_md.o(.text)
    I2C2_EV_IRQHandler                       0x080001b3   Thumb Code     0  startup_stm32f10x_md.o(.text)
    PVD_IRQHandler                           0x080001b3   Thumb Code     0  startup_stm32f10x_md.o(.text)
    RCC_IRQHandler                           0x080001b3   Thumb Code     0  startup_stm32f10x_md.o(.text)
    RTCAlarm_IRQHandler                      0x080001b3   Thumb Code     0  startup_stm32f10x_md.o(.text)
    RTC_IRQHandler                           0x080001b3   Thumb Code     0  startup_stm32f10x_md.o(.text)
    SPI1_IRQHandler                          0x080001b3   Thumb Code     0  startup_stm32f10x_md.o(.text)
    SPI2_IRQHandler                          0x080001b3   Thumb Code     0  startup_stm32f10x_md.o(.text)
    TAMPER_IRQHandler                        0x080001b3   Thumb Code     0  startup_stm32f10x_md.o(.text)
    TIM1_BRK_IRQHandler                      0x080001b3   Thumb Code     0  startup_stm32f10x_md.o(.text)
    TIM1_CC_IRQHandler                       0x080001b3   Thumb Code     0  startup_stm32f10x_md.o(.text)
    TIM1_TRG_COM_IRQHandler                  0x080001b3   Thumb Code     0  startup_stm32f10x_md.o(.text)
    TIM1_UP_IRQHandler                       0x080001b3   Thumb Code     0  startup_stm32f10x_md.o(.text)
    TIM3_IRQHandler                          0x080001b3   Thumb Code     0  startup_stm32f10x_md.o(.text)
    TIM4_IRQHandler                          0x080001b3   Thumb Code     0  startup_stm32f10x_md.o(.text)
    USART2_IRQHandler                        0x080001b3   Thumb Code     0  startup_stm32f10x_md.o(.text)
    USART3_IRQHandler                        0x080001b3   Thumb Code     0  startup_stm32f10x_md.o(.text)
    USBWakeUp_IRQHandler                     0x080001b3   Thumb Code     0  startup_stm32f10x_md.o(.text)
    USB_HP_CAN1_TX_IRQHandler                0x080001b3   Thumb Code     0  startup_stm32f10x_md.o(.text)
    USB_LP_CAN1_RX0_IRQHandler               0x080001b3   Thumb Code     0  startup_stm32f10x_md.o(.text)
    WWDG_IRQHandler                          0x080001b3   Thumb Code     0  startup_stm32f10x_md.o(.text)
    __user_initial_stackheap                 0x080001b5   Thumb Code     0  startup_stm32f10x_md.o(.text)
    __use_no_semihosting                     0x080001d9   Thumb Code     2  use_no_semi_2.o(.text)
    __2printf                                0x080001dd   Thumb Code    20  noretval__2printf.o(.text)
    _printf_str                              0x080001f5   Thumb Code    82  _printf_str.o(.text)
    _printf_int_dec                          0x08000249   Thumb Code   104  _printf_dec.o(.text)
    __printf                                 0x080002c1   Thumb Code   308  __printf_flags_wp.o(.text)
    __aeabi_memcpy                           0x080003f9   Thumb Code     0  rt_memcpy_v6.o(.text)
    __rt_memcpy                              0x080003f9   Thumb Code   138  rt_memcpy_v6.o(.text)
    _memcpy_lastbytes                        0x0800045f   Thumb Code     0  rt_memcpy_v6.o(.text)
    __aeabi_memcpy4                          0x08000483   Thumb Code     0  rt_memcpy_w.o(.text)
    __aeabi_memcpy8                          0x08000483   Thumb Code     0  rt_memcpy_w.o(.text)
    __rt_memcpy_w                            0x08000483   Thumb Code   100  rt_memcpy_w.o(.text)
    _memcpy_lastbytes_aligned                0x080004cb   Thumb Code     0  rt_memcpy_w.o(.text)
    __aeabi_memclr                           0x080004e7   Thumb Code     0  rt_memclr.o(.text)
    __rt_memclr                              0x080004e7   Thumb Code    68  rt_memclr.o(.text)
    _memset                                  0x080004eb   Thumb Code     0  rt_memclr.o(.text)
    __aeabi_memclr4                          0x0800052b   Thumb Code     0  rt_memclr_w.o(.text)
    __aeabi_memclr8                          0x0800052b   Thumb Code     0  rt_memclr_w.o(.text)
    __rt_memclr_w                            0x0800052b   Thumb Code    78  rt_memclr_w.o(.text)
    _memset_w                                0x0800052f   Thumb Code     0  rt_memclr_w.o(.text)
    __use_two_region_memory                  0x08000579   Thumb Code     2  heapauxi.o(.text)
    __rt_heap_escrow$2region                 0x0800057b   Thumb Code     2  heapauxi.o(.text)
    __rt_heap_expand$2region                 0x0800057d   Thumb Code     2  heapauxi.o(.text)
    __I$use$semihosting                      0x0800057f   Thumb Code     0  use_no_semi.o(.text)
    __use_no_semihosting_swi                 0x0800057f   Thumb Code     2  use_no_semi.o(.text)
    _printf_int_common                       0x08000581   Thumb Code   178  _printf_intcommon.o(.text)
    _printf_cs_common                        0x08000633   Thumb Code    20  _printf_char.o(.text)
    _printf_char                             0x08000647   Thumb Code    16  _printf_char.o(.text)
    _printf_string                           0x08000657   Thumb Code     8  _printf_char.o(.text)
    _printf_char_file                        0x08000661   Thumb Code    32  _printf_char_file.o(.text)
    _printf_char_common                      0x0800068f   Thumb Code    32  _printf_char_common.o(.text)
    ferror                                   0x080006b5   Thumb Code     8  ferror.o(.text)
    __user_setup_stackheap                   0x080006bd   Thumb Code    74  sys_stackheap_outer.o(.text)
    exit                                     0x08000707   Thumb Code    18  exit.o(.text)
    __user_libspace                          0x08000719   Thumb Code     8  libspace.o(.text)
    __user_perproc_libspace                  0x08000719   Thumb Code     0  libspace.o(.text)
    __user_perthread_libspace                0x08000719   Thumb Code     0  libspace.o(.text)
    BusFault_Handler                         0x08000721   Thumb Code     4  stm32f10x_it.o(i.BusFault_Handler)
    CMD_account_callback_register            0x08000725   Thumb Code     6  uart_data_x.o(i.CMD_account_callback_register)
    CMD_box_info_callback_register           0x08000731   Thumb Code     6  uart_data_x.o(i.CMD_box_info_callback_register)
    CMD_coin_in_callback_register            0x0800073d   Thumb Code     6  uart_data_x.o(i.CMD_coin_in_callback_register)
    CMD_coin_phy_callback_register           0x08000749   Thumb Code     6  uart_data_x.o(i.CMD_coin_phy_callback_register)
    CMD_connect_init                         0x08000755   Thumb Code    70  uart_data_x.o(i.CMD_connect_init)
    CMD_connect_send                         0x080007bd   Thumb Code   244  uart_data_x.o(i.CMD_connect_send)
    CMD_device_register_callback_register    0x080008d1   Thumb Code     6  uart_data_x.o(i.CMD_device_register_callback_register)
    CMD_fault_callback_register              0x080008dd   Thumb Code     6  uart_data_x.o(i.CMD_fault_callback_register)
    CMD_game_over_callback_register          0x080008e9   Thumb Code     6  uart_data_x.o(i.CMD_game_over_callback_register)
    CMD_lucky_callback_register              0x080008f5   Thumb Code     6  uart_data_x.o(i.CMD_lucky_callback_register)
    CMD_menu_read_callback_register          0x08000901   Thumb Code     6  uart_data_x.o(i.CMD_menu_read_callback_register)
    CMD_menu_set_callback_register           0x0800090d   Thumb Code     6  uart_data_x.o(i.CMD_menu_set_callback_register)
    CMD_pay_code_callback_register           0x08000959   Thumb Code     6  uart_data_x.o(i.CMD_pay_code_callback_register)
    CMD_send_account_rep                     0x08000965   Thumb Code    36  uart_data_x.o(i.CMD_send_account_rep)
    CMD_send_box_info                        0x0800098d   Thumb Code    32  uart_data_x.o(i.CMD_send_box_info)
    CMD_send_coin_in_rep                     0x080009b1   Thumb Code    36  uart_data_x.o(i.CMD_send_coin_in_rep)
    CMD_send_coin_phy                        0x080009d9   Thumb Code    36  uart_data_x.o(i.CMD_send_coin_phy)
    CMD_send_device_register                 0x08000a01   Thumb Code    36  uart_data_x.o(i.CMD_send_device_register)
    CMD_send_game_over                       0x08000a29   Thumb Code    36  uart_data_x.o(i.CMD_send_game_over)
    CMD_send_head                            0x08000a51   Thumb Code    94  uart_data_x.o(i.CMD_send_head)
    CMD_send_lucky_rep                       0x08000ab5   Thumb Code    36  uart_data_x.o(i.CMD_send_lucky_rep)
    CMD_send_menu_read_rep                   0x08000add   Thumb Code    36  uart_data_x.o(i.CMD_send_menu_read_rep)
    CMD_send_menu_set_rep                    0x08000b05   Thumb Code    36  uart_data_x.o(i.CMD_send_menu_set_rep)
    CMD_send_pay_code                        0x08000b2d   Thumb Code    32  uart_data_x.o(i.CMD_send_pay_code)
    CMD_send_status                          0x08000b51   Thumb Code    36  uart_data_x.o(i.CMD_send_status)
    CMD_send_tail                            0x08000b99   Thumb Code    66  uart_data_x.o(i.CMD_send_tail)
    CMD_send_universal_config_get_rep        0x08000be5   Thumb Code    36  uart_data_x.o(i.CMD_send_universal_config_get_rep)
    CMD_state_callback_register              0x08000c0d   Thumb Code     6  uart_data_x.o(i.CMD_state_callback_register)
    CMD_universal_config_get_callback_register 0x08000c19   Thumb Code     6  uart_data_x.o(i.CMD_universal_config_get_callback_register)
    CMD_update_check_callback_register       0x08000c25   Thumb Code     6  uart_data_x.o(i.CMD_update_check_callback_register)
    CMD_update_get_data_callback_register    0x08000c31   Thumb Code     6  uart_data_x.o(i.CMD_update_get_data_callback_register)
    DMA1_Channel4_IRQHandler                 0x08000c3d   Thumb Code    36  usart1_dma.o(i.DMA1_Channel4_IRQHandler)
    DMA_ClearFlag                            0x08000c69   Thumb Code    18  stm32f10x_dma.o(i.DMA_ClearFlag)
    DMA_Cmd                                  0x08000c85   Thumb Code    24  stm32f10x_dma.o(i.DMA_Cmd)
    DMA_DeInit                               0x08000c9d   Thumb Code   324  stm32f10x_dma.o(i.DMA_DeInit)
    DMA_GetCurrDataCounter                   0x08000de9   Thumb Code     8  stm32f10x_dma.o(i.DMA_GetCurrDataCounter)
    DMA_GetITStatus                          0x08000df1   Thumb Code    36  stm32f10x_dma.o(i.DMA_GetITStatus)
    DMA_ITConfig                             0x08000e1d   Thumb Code    18  stm32f10x_dma.o(i.DMA_ITConfig)
    DMA_Init                                 0x08000e2f   Thumb Code    60  stm32f10x_dma.o(i.DMA_Init)
    DebugMon_Handler                         0x08000e6b   Thumb Code     2  stm32f10x_it.o(i.DebugMon_Handler)
    GPIO_Init                                0x08000e6d   Thumb Code   278  stm32f10x_gpio.o(i.GPIO_Init)
    GPIO_ReadInputDataBit                    0x08000f83   Thumb Code    18  stm32f10x_gpio.o(i.GPIO_ReadInputDataBit)
    GPIO_WriteBit                            0x08000f95   Thumb Code    10  stm32f10x_gpio.o(i.GPIO_WriteBit)
    HardFault_Handler                        0x08000f9f   Thumb Code     4  stm32f10x_it.o(i.HardFault_Handler)
    MemManage_Handler                        0x08000fa3   Thumb Code     4  stm32f10x_it.o(i.MemManage_Handler)
    NMI_Handler                              0x08000fa7   Thumb Code     2  stm32f10x_it.o(i.NMI_Handler)
    NVIC_Init                                0x08000fa9   Thumb Code   100  misc.o(i.NVIC_Init)
    NVIC_PriorityGroupConfig                 0x08001019   Thumb Code    10  misc.o(i.NVIC_PriorityGroupConfig)
    NVIC_SetVectorTable                      0x0800102d   Thumb Code    12  misc.o(i.NVIC_SetVectorTable)
    PendSV_Handler                           0x08001041   Thumb Code     2  stm32f10x_it.o(i.PendSV_Handler)
    RCC_AHBPeriphClockCmd                    0x08001045   Thumb Code    26  stm32f10x_rcc.o(i.RCC_AHBPeriphClockCmd)
    RCC_APB1PeriphClockCmd                   0x08001065   Thumb Code    26  stm32f10x_rcc.o(i.RCC_APB1PeriphClockCmd)
    RCC_APB2PeriphClockCmd                   0x08001085   Thumb Code    26  stm32f10x_rcc.o(i.RCC_APB2PeriphClockCmd)
    RCC_GetClocksFreq                        0x080010a5   Thumb Code   192  stm32f10x_rcc.o(i.RCC_GetClocksFreq)
    SVC_Handler                              0x08001179   Thumb Code     2  stm32f10x_it.o(i.SVC_Handler)
    SysTick_Handler                          0x08001265   Thumb Code     2  stm32f10x_it.o(i.SysTick_Handler)
    SystemInit                               0x08001269   Thumb Code    78  system_stm32f10x.o(i.SystemInit)
    TIM2_IRQHandler                          0x080012c9   Thumb Code   158  timer2.o(i.TIM2_IRQHandler)
    TIM_ClearITPendingBit                    0x08001391   Thumb Code     6  stm32f10x_tim.o(i.TIM_ClearITPendingBit)
    TIM_Cmd                                  0x08001397   Thumb Code    24  stm32f10x_tim.o(i.TIM_Cmd)
    TIM_GetFlagStatus                        0x080013af   Thumb Code    18  stm32f10x_tim.o(i.TIM_GetFlagStatus)
    TIM_ITConfig                             0x080013c1   Thumb Code    18  stm32f10x_tim.o(i.TIM_ITConfig)
    TIM_TimeBaseInit                         0x080013d5   Thumb Code   122  stm32f10x_tim.o(i.TIM_TimeBaseInit)
    USART1_IRQHandler                        0x08001569   Thumb Code    36  usart1_dma.o(i.USART1_IRQHandler)
    USART_ClearFlag                          0x08001591   Thumb Code    18  stm32f10x_usart.o(i.USART_ClearFlag)
    USART_Cmd                                0x080015a3   Thumb Code    24  stm32f10x_usart.o(i.USART_Cmd)
    USART_DMACmd                             0x080015bb   Thumb Code    18  stm32f10x_usart.o(i.USART_DMACmd)
    USART_GetFlagStatus                      0x080015cd   Thumb Code    26  stm32f10x_usart.o(i.USART_GetFlagStatus)
    USART_GetITStatus                        0x080015e7   Thumb Code    84  stm32f10x_usart.o(i.USART_GetITStatus)
    USART_ITConfig                           0x0800163b   Thumb Code    74  stm32f10x_usart.o(i.USART_ITConfig)
    USART_Init                               0x08001685   Thumb Code   210  stm32f10x_usart.o(i.USART_Init)
    USART_ReceiveData                        0x0800175d   Thumb Code    10  stm32f10x_usart.o(i.USART_ReceiveData)
    USART_SendData                           0x08001767   Thumb Code     8  stm32f10x_usart.o(i.USART_SendData)
    UsageFault_Handler                       0x0800176f   Thumb Code     4  stm32f10x_it.o(i.UsageFault_Handler)
    _is_digit                                0x08001773   Thumb Code    14  __printf_wp.o(i._is_digit)
    _sys_exit                                0x08001781   Thumb Code     4  usart1_dma.o(i._sys_exit)
    data_write_reverse                       0x08001785   Thumb Code    36  main.o(i.data_write_reverse)
    device_id_init                           0x08001bd1   Thumb Code    26  device_id.o(i.device_id_init)
    fputc                                    0x08001bf5   Thumb Code    32  usart1_dma.o(i.fputc)
    game_main_change_sta                     0x08001c19   Thumb Code     6  game_main.o(i.game_main_change_sta)
    game_main_init                           0x08001c89   Thumb Code    32  game_main.o(i.game_main_init)
    game_main_run                            0x08001db5   Thumb Code   372  game_main.o(i.game_main_run)
    key_check                                0x08002dd1   Thumb Code   102  key.o(i.key_check)
    key_clear_all                            0x08002e45   Thumb Code     8  key.o(i.key_clear_all)
    key_init                                 0x08002e51   Thumb Code    48  key.o(i.key_init)
    key_press                                0x08002e8d   Thumb Code    36  key.o(i.key_press)
    led_run_init                             0x08002eb5   Thumb Code    72  led_run.o(i.led_run_init)
    led_run_set                              0x08002f05   Thumb Code    30  led_run.o(i.led_run_set)
    main                                     0x08002f2d   Thumb Code   102  main.o(i.main)
    main_data_xor                            0x08002fb1   Thumb Code    26  main.o(i.main_data_xor)
    timer2_100ms_Game_sta_get                0x08002fcd   Thumb Code    20  timer2.o(i.timer2_100ms_Game_sta_get)
    timer2_1ms_Game_sta_get                  0x08002fe5   Thumb Code    20  timer2.o(i.timer2_1ms_Game_sta_get)
    timer2_500ms_sta_get                     0x08002ffd   Thumb Code    20  timer2.o(i.timer2_500ms_sta_get)
    timer2_init                              0x08003015   Thumb Code   144  timer2.o(i.timer2_init)
    uart1_dma_get_data_check                 0x080030cd   Thumb Code    92  usart1_dma.o(i.uart1_dma_get_data_check)
    uart1_dma_init                           0x08003135   Thumb Code   256  usart1_dma.o(i.uart1_dma_init)
    uart1_dma_recv_data                      0x08003265   Thumb Code   102  usart1_dma.o(i.uart1_dma_recv_data)
    uart1_dma_send_data_check                0x080032e1   Thumb Code    88  usart1_dma.o(i.uart1_dma_send_data_check)
    uart1_dma_send_data_push                 0x0800334d   Thumb Code    48  usart1_dma.o(i.uart1_dma_send_data_push)
    uart1_get_data                           0x08003385   Thumb Code    30  usart1_dma.o(i.uart1_get_data)
    uart_data_x_get_buff_get                 0x080034c1   Thumb Code     4  uart_data_x.o(i.uart_data_x_get_buff_get)
    uart_data_x_init                         0x080034c9   Thumb Code    24  uart_data_x.o(i.uart_data_x_init)
    uart_data_x_startup_decode               0x080034e9   Thumb Code    22  uart_data_x.o(i.uart_data_x_startup_decode)
    uart_data_x_timer_1ms                    0x08003505   Thumb Code    52  uart_data_x.o(i.uart_data_x_timer_1ms)
    uart_dma_send_enable                     0x0800353d   Thumb Code    20  usart1_dma.o(i.uart_dma_send_enable)
    parms_head                               0x08003554   Data           3  uart_data_x.o(.constdata)
    parms_end                                0x08003557   Data           2  uart_data_x.o(.constdata)
    Region$$Table$$Base                      0x0800356c   Number         0  anon$$obj.o(Region$$Table)
    Region$$Table$$Limit                     0x0800358c   Number         0  anon$$obj.o(Region$$Table)
    __stdout                                 0x20000018   Data           4  usart1_dma.o(.data)
    uart_get_num                             0x2000001c   Data           2  usart1_dma.o(.data)
    uart_get_over_num                        0x2000001e   Data           2  usart1_dma.o(.data)
    uart_send_finish_flag                    0x20000020   Data           1  usart1_dma.o(.data)
    uart_wait_send_num                       0x20000022   Data           2  usart1_dma.o(.data)
    uart_send_num                            0x20000024   Data           2  usart1_dma.o(.data)
    uart1_recv_counts                        0x20000028   Data           4  usart1_dma.o(.data)
    timer2_2ms                               0x2000002c   Data           1  timer2.o(.data)
    timer2_100ms                             0x2000002d   Data           1  timer2.o(.data)
    timer2_100ms_sta                         0x2000002e   Data           1  timer2.o(.data)
    timer2_500ms                             0x2000002f   Data           1  timer2.o(.data)
    timer2_500ms_sta                         0x20000030   Data           1  timer2.o(.data)
    timer2_100ms_update                      0x20000031   Data           1  timer2.o(.data)
    timer2_100ms_update_sta                  0x20000032   Data           1  timer2.o(.data)
    timer2_1ms_Game_sta                      0x20000033   Data           1  timer2.o(.data)
    timer2_100ms_Game                        0x20000034   Data           1  timer2.o(.data)
    timer2_100ms_Game_sta                    0x20000035   Data           1  timer2.o(.data)
    key_old                                  0x20000036   Data           2  key.o(.data)
    key_down                                 0x20000038   Data           2  key.o(.data)
    CMD_connet_callback                      0x2000003c   Data           4  uart_data_x.o(.data)
    CMD_state_callback                       0x20000040   Data           4  uart_data_x.o(.data)
    CMD_coin_in_callback                     0x20000044   Data           4  uart_data_x.o(.data)
    CMD_universal_config_get_callback        0x20000048   Data           4  uart_data_x.o(.data)
    CMD_account_callback                     0x2000004c   Data           4  uart_data_x.o(.data)
    CMD_coin_phy_callback                    0x20000050   Data           4  uart_data_x.o(.data)
    CMD_game_over_callback                   0x20000054   Data           4  uart_data_x.o(.data)
    CMD_fault_callback                       0x20000058   Data           4  uart_data_x.o(.data)
    CMD_device_register_callback             0x2000005c   Data           4  uart_data_x.o(.data)
    CMD_lucky_callback                       0x20000060   Data           4  uart_data_x.o(.data)
    CMD_menu_set_callback                    0x20000064   Data           4  uart_data_x.o(.data)
    CMD_menu_read_callback                   0x20000068   Data           4  uart_data_x.o(.data)
    CMD_box_info_callback                    0x2000006c   Data           4  uart_data_x.o(.data)
    CMD_pay_code_callback                    0x20000070   Data           4  uart_data_x.o(.data)
    CMD_update_check_callback                0x20000074   Data           4  uart_data_x.o(.data)
    CMD_update_get_data_callback             0x20000078   Data           4  uart_data_x.o(.data)
    USART1_MY_RX_BUF                         0x2000008c   Data         256  usart1_dma.o(.bss)
    USART1_MY_TX_BUF                         0x2000018c   Data         128  usart1_dma.o(.bss)
    USART1_DMA_RX_BUF                        0x2000020c   Data         256  usart1_dma.o(.bss)
    USART1_DMA_TX_BUF                        0x2000030c   Data         256  usart1_dma.o(.bss)
    device_id_buff                           0x2000040c   Data          12  device_id.o(.bss)
    game_main_config                         0x20000418   Data         612  game_main.o(.bss)
    game_main_send_buff                      0x2000067c   Data         128  game_main.o(.bss)
    device_id_buff_send                      0x200006fc   Data          16  game_main.o(.bss)
    cmd_data_send                            0x20000810   Data         256  uart_data_x.o(.bss)
    __libspace_start                         0x20000920   Data          96  libspace.o(.bss)
    __temporary_stack_top$libspace           0x20000980   Data           0  libspace.o(.bss)



==============================================================================

Memory Map of the image

  Image Entry point : 0x080000ed

  Load Region LR_IROM1 (Base: 0x08000000, Size: 0x00003618, Max: 0x00020000, ABSOLUTE)

    Execution Region ER_IROM1 (Base: 0x08000000, Size: 0x0000358c, Max: 0x00020000, ABSOLUTE)

    Base Addr    Size         Type   Attr      Idx    E Section Name        Object

    0x08000000   0x000000ec   Data   RO           87    RESET               startup_stm32f10x_md.o
    0x080000ec   0x00000008   Code   RO         2381  * !!!main             c_w.l(__main.o)
    0x080000f4   0x00000034   Code   RO         2551    !!!scatter          c_w.l(__scatter.o)
    0x08000128   0x0000001a   Code   RO         2553    !!handler_copy      c_w.l(__scatter_copy.o)
    0x08000142   0x00000002   PAD
    0x08000144   0x0000001c   Code   RO         2555    !!handler_zi        c_w.l(__scatter_zi.o)
    0x08000160   0x00000000   Code   RO         2368    .ARM.Collect$$_printf_percent$$00000000  c_w.l(_printf_percent.o)
    0x08000160   0x00000006   Code   RO         2367    .ARM.Collect$$_printf_percent$$00000009  c_w.l(_printf_d.o)
    0x08000166   0x00000006   Code   RO         2365    .ARM.Collect$$_printf_percent$$00000014  c_w.l(_printf_s.o)
    0x0800016c   0x00000004   Code   RO         2392    .ARM.Collect$$_printf_percent$$00000017  c_w.l(_printf_percent_end.o)
    0x08000170   0x00000002   Code   RO         2425    .ARM.Collect$$libinit$$00000000  c_w.l(libinit.o)
    0x08000172   0x00000000   Code   RO         2432    .ARM.Collect$$libinit$$00000002  c_w.l(libinit2.o)
    0x08000172   0x00000000   Code   RO         2434    .ARM.Collect$$libinit$$00000004  c_w.l(libinit2.o)
    0x08000172   0x00000000   Code   RO         2437    .ARM.Collect$$libinit$$0000000A  c_w.l(libinit2.o)
    0x08000172   0x00000000   Code   RO         2439    .ARM.Collect$$libinit$$0000000C  c_w.l(libinit2.o)
    0x08000172   0x00000000   Code   RO         2441    .ARM.Collect$$libinit$$0000000E  c_w.l(libinit2.o)
    0x08000172   0x00000000   Code   RO         2444    .ARM.Collect$$libinit$$00000011  c_w.l(libinit2.o)
    0x08000172   0x00000000   Code   RO         2446    .ARM.Collect$$libinit$$00000013  c_w.l(libinit2.o)
    0x08000172   0x00000000   Code   RO         2448    .ARM.Collect$$libinit$$00000015  c_w.l(libinit2.o)
    0x08000172   0x00000000   Code   RO         2450    .ARM.Collect$$libinit$$00000017  c_w.l(libinit2.o)
    0x08000172   0x00000000   Code   RO         2452    .ARM.Collect$$libinit$$00000019  c_w.l(libinit2.o)
    0x08000172   0x00000000   Code   RO         2454    .ARM.Collect$$libinit$$0000001B  c_w.l(libinit2.o)
    0x08000172   0x00000000   Code   RO         2456    .ARM.Collect$$libinit$$0000001D  c_w.l(libinit2.o)
    0x08000172   0x00000000   Code   RO         2458    .ARM.Collect$$libinit$$0000001F  c_w.l(libinit2.o)
    0x08000172   0x00000000   Code   RO         2460    .ARM.Collect$$libinit$$00000021  c_w.l(libinit2.o)
    0x08000172   0x00000000   Code   RO         2462    .ARM.Collect$$libinit$$00000023  c_w.l(libinit2.o)
    0x08000172   0x00000000   Code   RO         2464    .ARM.Collect$$libinit$$00000025  c_w.l(libinit2.o)
    0x08000172   0x00000000   Code   RO         2468    .ARM.Collect$$libinit$$0000002C  c_w.l(libinit2.o)
    0x08000172   0x00000000   Code   RO         2470    .ARM.Collect$$libinit$$0000002E  c_w.l(libinit2.o)
    0x08000172   0x00000000   Code   RO         2472    .ARM.Collect$$libinit$$00000030  c_w.l(libinit2.o)
    0x08000172   0x00000000   Code   RO         2474    .ARM.Collect$$libinit$$00000032  c_w.l(libinit2.o)
    0x08000172   0x00000002   Code   RO         2475    .ARM.Collect$$libinit$$00000033  c_w.l(libinit2.o)
    0x08000174   0x00000002   Code   RO         2493    .ARM.Collect$$libshutdown$$00000000  c_w.l(libshutdown.o)
    0x08000176   0x00000000   Code   RO         2503    .ARM.Collect$$libshutdown$$00000002  c_w.l(libshutdown2.o)
    0x08000176   0x00000000   Code   RO         2505    .ARM.Collect$$libshutdown$$00000004  c_w.l(libshutdown2.o)
    0x08000176   0x00000000   Code   RO         2508    .ARM.Collect$$libshutdown$$00000007  c_w.l(libshutdown2.o)
    0x08000176   0x00000000   Code   RO         2511    .ARM.Collect$$libshutdown$$0000000A  c_w.l(libshutdown2.o)
    0x08000176   0x00000000   Code   RO         2513    .ARM.Collect$$libshutdown$$0000000C  c_w.l(libshutdown2.o)
    0x08000176   0x00000000   Code   RO         2516    .ARM.Collect$$libshutdown$$0000000F  c_w.l(libshutdown2.o)
    0x08000176   0x00000002   Code   RO         2517    .ARM.Collect$$libshutdown$$00000010  c_w.l(libshutdown2.o)
    0x08000178   0x00000000   Code   RO         2385    .ARM.Collect$$rtentry$$00000000  c_w.l(__rtentry.o)
    0x08000178   0x00000000   Code   RO         2394    .ARM.Collect$$rtentry$$00000002  c_w.l(__rtentry2.o)
    0x08000178   0x00000006   Code   RO         2406    .ARM.Collect$$rtentry$$00000004  c_w.l(__rtentry4.o)
    0x0800017e   0x00000000   Code   RO         2396    .ARM.Collect$$rtentry$$00000009  c_w.l(__rtentry2.o)
    0x0800017e   0x00000004   Code   RO         2397    .ARM.Collect$$rtentry$$0000000A  c_w.l(__rtentry2.o)
    0x08000182   0x00000000   Code   RO         2399    .ARM.Collect$$rtentry$$0000000C  c_w.l(__rtentry2.o)
    0x08000182   0x00000008   Code   RO         2400    .ARM.Collect$$rtentry$$0000000D  c_w.l(__rtentry2.o)
    0x0800018a   0x00000002   Code   RO         2429    .ARM.Collect$$rtexit$$00000000  c_w.l(rtexit.o)
    0x0800018c   0x00000000   Code   RO         2477    .ARM.Collect$$rtexit$$00000002  c_w.l(rtexit2.o)
    0x0800018c   0x00000004   Code   RO         2478    .ARM.Collect$$rtexit$$00000003  c_w.l(rtexit2.o)
    0x08000190   0x00000006   Code   RO         2479    .ARM.Collect$$rtexit$$00000004  c_w.l(rtexit2.o)
    0x08000196   0x00000002   PAD
    0x08000198   0x00000040   Code   RO           88    .text               startup_stm32f10x_md.o
    0x080001d8   0x00000002   Code   RO         2310    .text               c_w.l(use_no_semi_2.o)
    0x080001da   0x00000002   PAD
    0x080001dc   0x00000018   Code   RO         2314    .text               c_w.l(noretval__2printf.o)
    0x080001f4   0x00000052   Code   RO         2320    .text               c_w.l(_printf_str.o)
    0x08000246   0x00000002   PAD
    0x08000248   0x00000078   Code   RO         2322    .text               c_w.l(_printf_dec.o)
    0x080002c0   0x00000138   Code   RO         2357    .text               c_w.l(__printf_flags_wp.o)
    0x080003f8   0x0000008a   Code   RO         2371    .text               c_w.l(rt_memcpy_v6.o)
    0x08000482   0x00000064   Code   RO         2373    .text               c_w.l(rt_memcpy_w.o)
    0x080004e6   0x00000044   Code   RO         2375    .text               c_w.l(rt_memclr.o)
    0x0800052a   0x0000004e   Code   RO         2377    .text               c_w.l(rt_memclr_w.o)
    0x08000578   0x00000006   Code   RO         2379    .text               c_w.l(heapauxi.o)
    0x0800057e   0x00000002   Code   RO         2383    .text               c_w.l(use_no_semi.o)
    0x08000580   0x000000b2   Code   RO         2386    .text               c_w.l(_printf_intcommon.o)
    0x08000632   0x0000002c   Code   RO         2388    .text               c_w.l(_printf_char.o)
    0x0800065e   0x00000002   PAD
    0x08000660   0x00000024   Code   RO         2390    .text               c_w.l(_printf_char_file.o)
    0x08000684   0x00000030   Code   RO         2408    .text               c_w.l(_printf_char_common.o)
    0x080006b4   0x00000008   Code   RO         2410    .text               c_w.l(ferror.o)
    0x080006bc   0x0000004a   Code   RO         2414    .text               c_w.l(sys_stackheap_outer.o)
    0x08000706   0x00000012   Code   RO         2418    .text               c_w.l(exit.o)
    0x08000718   0x00000008   Code   RO         2426    .text               c_w.l(libspace.o)
    0x08000720   0x00000004   Code   RO         1433    i.BusFault_Handler  stm32f10x_it.o
    0x08000724   0x0000000c   Code   RO         2045    i.CMD_account_callback_register  uart_data_x.o
    0x08000730   0x0000000c   Code   RO         2046    i.CMD_box_info_callback_register  uart_data_x.o
    0x0800073c   0x0000000c   Code   RO         2047    i.CMD_coin_in_callback_register  uart_data_x.o
    0x08000748   0x0000000c   Code   RO         2048    i.CMD_coin_phy_callback_register  uart_data_x.o
    0x08000754   0x00000068   Code   RO         2049    i.CMD_connect_init  uart_data_x.o
    0x080007bc   0x00000114   Code   RO         2050    i.CMD_connect_send  uart_data_x.o
    0x080008d0   0x0000000c   Code   RO         2051    i.CMD_device_register_callback_register  uart_data_x.o
    0x080008dc   0x0000000c   Code   RO         2052    i.CMD_fault_callback_register  uart_data_x.o
    0x080008e8   0x0000000c   Code   RO         2053    i.CMD_game_over_callback_register  uart_data_x.o
    0x080008f4   0x0000000c   Code   RO         2054    i.CMD_lucky_callback_register  uart_data_x.o
    0x08000900   0x0000000c   Code   RO         2055    i.CMD_menu_read_callback_register  uart_data_x.o
    0x0800090c   0x0000000c   Code   RO         2056    i.CMD_menu_set_callback_register  uart_data_x.o
    0x08000918   0x00000040   Code   RO         2057    i.CMD_organize_send_data  uart_data_x.o
    0x08000958   0x0000000c   Code   RO         2058    i.CMD_pay_code_callback_register  uart_data_x.o
    0x08000964   0x00000028   Code   RO         2059    i.CMD_send_account_rep  uart_data_x.o
    0x0800098c   0x00000024   Code   RO         2060    i.CMD_send_box_info  uart_data_x.o
    0x080009b0   0x00000028   Code   RO         2061    i.CMD_send_coin_in_rep  uart_data_x.o
    0x080009d8   0x00000028   Code   RO         2062    i.CMD_send_coin_phy  uart_data_x.o
    0x08000a00   0x00000028   Code   RO         2063    i.CMD_send_device_register  uart_data_x.o
    0x08000a28   0x00000028   Code   RO         2065    i.CMD_send_game_over  uart_data_x.o
    0x08000a50   0x00000064   Code   RO         2066    i.CMD_send_head     uart_data_x.o
    0x08000ab4   0x00000028   Code   RO         2067    i.CMD_send_lucky_rep  uart_data_x.o
    0x08000adc   0x00000028   Code   RO         2068    i.CMD_send_menu_read_rep  uart_data_x.o
    0x08000b04   0x00000028   Code   RO         2069    i.CMD_send_menu_set_rep  uart_data_x.o
    0x08000b2c   0x00000024   Code   RO         2070    i.CMD_send_pay_code  uart_data_x.o
    0x08000b50   0x00000028   Code   RO         2071    i.CMD_send_status   uart_data_x.o
    0x08000b78   0x0000001e   Code   RO         2072    i.CMD_send_sum      uart_data_x.o
    0x08000b96   0x00000002   PAD
    0x08000b98   0x0000004c   Code   RO         2073    i.CMD_send_tail     uart_data_x.o
    0x08000be4   0x00000028   Code   RO         2074    i.CMD_send_universal_config_get_rep  uart_data_x.o
    0x08000c0c   0x0000000c   Code   RO         2077    i.CMD_state_callback_register  uart_data_x.o
    0x08000c18   0x0000000c   Code   RO         2078    i.CMD_universal_config_get_callback_register  uart_data_x.o
    0x08000c24   0x0000000c   Code   RO         2079    i.CMD_update_check_callback_register  uart_data_x.o
    0x08000c30   0x0000000c   Code   RO         2080    i.CMD_update_get_data_callback_register  uart_data_x.o
    0x08000c3c   0x0000002c   Code   RO         1549    i.DMA1_Channel4_IRQHandler  usart1_dma.o
    0x08000c68   0x0000001c   Code   RO          813    i.DMA_ClearFlag     stm32f10x_dma.o
    0x08000c84   0x00000018   Code   RO          815    i.DMA_Cmd           stm32f10x_dma.o
    0x08000c9c   0x0000014c   Code   RO          816    i.DMA_DeInit        stm32f10x_dma.o
    0x08000de8   0x00000008   Code   RO          817    i.DMA_GetCurrDataCounter  stm32f10x_dma.o
    0x08000df0   0x0000002c   Code   RO          819    i.DMA_GetITStatus   stm32f10x_dma.o
    0x08000e1c   0x00000012   Code   RO          820    i.DMA_ITConfig      stm32f10x_dma.o
    0x08000e2e   0x0000003c   Code   RO          821    i.DMA_Init          stm32f10x_dma.o
    0x08000e6a   0x00000002   Code   RO         1434    i.DebugMon_Handler  stm32f10x_it.o
    0x08000e6c   0x00000116   Code   RO          351    i.GPIO_Init         stm32f10x_gpio.o
    0x08000f82   0x00000012   Code   RO          355    i.GPIO_ReadInputDataBit  stm32f10x_gpio.o
    0x08000f94   0x0000000a   Code   RO          362    i.GPIO_WriteBit     stm32f10x_gpio.o
    0x08000f9e   0x00000004   Code   RO         1435    i.HardFault_Handler  stm32f10x_it.o
    0x08000fa2   0x00000004   Code   RO         1436    i.MemManage_Handler  stm32f10x_it.o
    0x08000fa6   0x00000002   Code   RO         1437    i.NMI_Handler       stm32f10x_it.o
    0x08000fa8   0x00000070   Code   RO           92    i.NVIC_Init         misc.o
    0x08001018   0x00000014   Code   RO           93    i.NVIC_PriorityGroupConfig  misc.o
    0x0800102c   0x00000014   Code   RO           94    i.NVIC_SetVectorTable  misc.o
    0x08001040   0x00000002   Code   RO         1438    i.PendSV_Handler    stm32f10x_it.o
    0x08001042   0x00000002   PAD
    0x08001044   0x00000020   Code   RO          146    i.RCC_AHBPeriphClockCmd  stm32f10x_rcc.o
    0x08001064   0x00000020   Code   RO          147    i.RCC_APB1PeriphClockCmd  stm32f10x_rcc.o
    0x08001084   0x00000020   Code   RO          149    i.RCC_APB2PeriphClockCmd  stm32f10x_rcc.o
    0x080010a4   0x000000d4   Code   RO          157    i.RCC_GetClocksFreq  stm32f10x_rcc.o
    0x08001178   0x00000002   Code   RO         1439    i.SVC_Handler       stm32f10x_it.o
    0x0800117a   0x00000008   Code   RO           17    i.SetSysClock       system_stm32f10x.o
    0x08001182   0x00000002   PAD
    0x08001184   0x000000e0   Code   RO           18    i.SetSysClockTo72   system_stm32f10x.o
    0x08001264   0x00000002   Code   RO         1440    i.SysTick_Handler   stm32f10x_it.o
    0x08001266   0x00000002   PAD
    0x08001268   0x00000060   Code   RO           20    i.SystemInit        system_stm32f10x.o
    0x080012c8   0x000000c8   Code   RO         1654    i.TIM2_IRQHandler   timer2.o
    0x08001390   0x00000006   Code   RO          896    i.TIM_ClearITPendingBit  stm32f10x_tim.o
    0x08001396   0x00000018   Code   RO          901    i.TIM_Cmd           stm32f10x_tim.o
    0x080013ae   0x00000012   Code   RO          921    i.TIM_GetFlagStatus  stm32f10x_tim.o
    0x080013c0   0x00000012   Code   RO          926    i.TIM_ITConfig      stm32f10x_tim.o
    0x080013d2   0x00000002   PAD
    0x080013d4   0x000000a4   Code   RO          972    i.TIM_TimeBaseInit  stm32f10x_tim.o
    0x08001478   0x000000f0   Code   RO         1550    i.USART1_DMA_set_init  usart1_dma.o
    0x08001568   0x00000028   Code   RO         1551    i.USART1_IRQHandler  usart1_dma.o
    0x08001590   0x00000012   Code   RO          459    i.USART_ClearFlag   stm32f10x_usart.o
    0x080015a2   0x00000018   Code   RO          463    i.USART_Cmd         stm32f10x_usart.o
    0x080015ba   0x00000012   Code   RO          464    i.USART_DMACmd      stm32f10x_usart.o
    0x080015cc   0x0000001a   Code   RO          466    i.USART_GetFlagStatus  stm32f10x_usart.o
    0x080015e6   0x00000054   Code   RO          467    i.USART_GetITStatus  stm32f10x_usart.o
    0x0800163a   0x0000004a   Code   RO          469    i.USART_ITConfig    stm32f10x_usart.o
    0x08001684   0x000000d8   Code   RO          470    i.USART_Init        stm32f10x_usart.o
    0x0800175c   0x0000000a   Code   RO          477    i.USART_ReceiveData  stm32f10x_usart.o
    0x08001766   0x00000008   Code   RO          480    i.USART_SendData    stm32f10x_usart.o
    0x0800176e   0x00000004   Code   RO         1441    i.UsageFault_Handler  stm32f10x_it.o
    0x08001772   0x0000000e   Code   RO         2355    i._is_digit         c_w.l(__printf_wp.o)
    0x08001780   0x00000004   Code   RO         1552    i._sys_exit         usart1_dma.o
    0x08001784   0x00000024   Code   RO         1496    i.data_write_reverse  main.o
    0x080017a8   0x00000428   Code   RO         2081    i.decode_uart_use_data  uart_data_x.o
    0x08001bd0   0x00000024   Code   RO         1807    i.device_id_init    device_id.o
    0x08001bf4   0x00000024   Code   RO         1553    i.fputc             usart1_dma.o
    0x08001c18   0x0000000c   Code   RO         1831    i.game_main_change_sta  game_main.o
    0x08001c24   0x00000064   Code   RO         1832    i.game_main_get_save_data  game_main.o
    0x08001c88   0x00000024   Code   RO         1833    i.game_main_init    game_main.o
    0x08001cac   0x0000006c   Code   RO         1834    i.game_main_reply_account  game_main.o
    0x08001d18   0x00000028   Code   RO         1835    i.game_main_reply_coin  game_main.o
    0x08001d40   0x0000004c   Code   RO         1836    i.game_main_reply_state  game_main.o
    0x08001d8c   0x00000028   Code   RO         1837    i.game_main_reply_universal_config_get  game_main.o
    0x08001db4   0x00000178   Code   RO         1838    i.game_main_run     game_main.o
    0x08001f2c   0x0000002c   Code   RO         1839    i.game_main_send_box_info  game_main.o
    0x08001f58   0x00000034   Code   RO         1840    i.game_main_send_coin_phy  game_main.o
    0x08001f8c   0x00000084   Code   RO         1841    i.game_main_send_device_register  game_main.o
    0x08002010   0x0000005c   Code   RO         1843    i.game_main_send_game_over  game_main.o
    0x0800206c   0x00000028   Code   RO         1844    i.game_main_send_lucky  game_main.o
    0x08002094   0x0000006c   Code   RO         1845    i.game_main_send_menu_read  game_main.o
    0x08002100   0x00000024   Code   RO         1846    i.game_main_send_menu_set  game_main.o
    0x08002124   0x00000008   Code   RO         1847    i.game_main_send_pay_code  game_main.o
    0x0800212c   0x000000c8   Code   RO         1850    i.game_main_time_check_100Ms  game_main.o
    0x080021f4   0x00000024   Code   RO         1851    i.game_main_trans_id_get  game_main.o
    0x08002218   0x00000038   Code   RO         1852    i.game_main_uart_account_callback  game_main.o
    0x08002250   0x00000130   Code   RO         1853    i.game_main_uart_box_info_callback  game_main.o
    0x08002380   0x00000198   Code   RO         1854    i.game_main_uart_coin_in_callback  game_main.o
    0x08002518   0x00000054   Code   RO         1855    i.game_main_uart_coin_phy_callback  game_main.o
    0x0800256c   0x000000a0   Code   RO         1856    i.game_main_uart_connet_callback  game_main.o
    0x0800260c   0x000000c4   Code   RO         1857    i.game_main_uart_device_register_callback  game_main.o
    0x080026d0   0x00000038   Code   RO         1858    i.game_main_uart_fault_callback  game_main.o
    0x08002708   0x0000006c   Code   RO         1859    i.game_main_uart_game_over_callback  game_main.o
    0x08002774   0x000000c4   Code   RO         1860    i.game_main_uart_init  game_main.o
    0x08002838   0x00000118   Code   RO         1861    i.game_main_uart_lucky_callback  game_main.o
    0x08002950   0x000000ac   Code   RO         1862    i.game_main_uart_menu_read_callback  game_main.o
    0x080029fc   0x00000150   Code   RO         1863    i.game_main_uart_menu_set_callback  game_main.o
    0x08002b4c   0x00000084   Code   RO         1864    i.game_main_uart_pay_code_callback  game_main.o
    0x08002bd0   0x0000008c   Code   RO         1865    i.game_main_uart_state_callback  game_main.o
    0x08002c5c   0x0000004c   Code   RO         1866    i.game_main_uart_universal_config_get_callback  game_main.o
    0x08002ca8   0x000000b4   Code   RO         1867    i.game_main_uart_update_check_callback  game_main.o
    0x08002d5c   0x00000074   Code   RO         1868    i.game_main_uart_update_get_data_callback  game_main.o
    0x08002dd0   0x00000074   Code   RO         1762    i.key_check         key.o
    0x08002e44   0x0000000c   Code   RO         1763    i.key_clear_all     key.o
    0x08002e50   0x0000003c   Code   RO         1764    i.key_init          key.o
    0x08002e8c   0x00000028   Code   RO         1766    i.key_press         key.o
    0x08002eb4   0x00000050   Code   RO         1741    i.led_run_init      led_run.o
    0x08002f04   0x00000028   Code   RO         1742    i.led_run_set       led_run.o
    0x08002f2c   0x00000084   Code   RO         1497    i.main              main.o
    0x08002fb0   0x0000001a   Code   RO         1498    i.main_data_xor     main.o
    0x08002fca   0x00000002   PAD
    0x08002fcc   0x00000018   Code   RO         1656    i.timer2_100ms_Game_sta_get  timer2.o
    0x08002fe4   0x00000018   Code   RO         1662    i.timer2_1ms_Game_sta_get  timer2.o
    0x08002ffc   0x00000018   Code   RO         1664    i.timer2_500ms_sta_get  timer2.o
    0x08003014   0x000000b8   Code   RO         1665    i.timer2_init       timer2.o
    0x080030cc   0x00000068   Code   RO         1554    i.uart1_dma_get_data_check  usart1_dma.o
    0x08003134   0x00000130   Code   RO         1555    i.uart1_dma_init    usart1_dma.o
    0x08003264   0x0000007c   Code   RO         1556    i.uart1_dma_recv_data  usart1_dma.o
    0x080032e0   0x0000006c   Code   RO         1557    i.uart1_dma_send_data_check  usart1_dma.o
    0x0800334c   0x00000038   Code   RO         1558    i.uart1_dma_send_data_push  usart1_dma.o
    0x08003384   0x00000028   Code   RO         1559    i.uart1_get_data    usart1_dma.o
    0x080033ac   0x00000114   Code   RO         2082    i.uart_data_decode  uart_data_x.o
    0x080034c0   0x00000008   Code   RO         2083    i.uart_data_x_get_buff_get  uart_data_x.o
    0x080034c8   0x00000020   Code   RO         2084    i.uart_data_x_init  uart_data_x.o
    0x080034e8   0x0000001c   Code   RO         2085    i.uart_data_x_startup_decode  uart_data_x.o
    0x08003504   0x00000038   Code   RO         2086    i.uart_data_x_timer_1ms  uart_data_x.o
    0x0800353c   0x00000018   Code   RO         1560    i.uart_dma_send_enable  usart1_dma.o
    0x08003554   0x00000005   Data   RO         2088    .constdata          uart_data_x.o
    0x08003559   0x00000011   Data   RO         2358    .constdata          c_w.l(__printf_flags_wp.o)
    0x0800356a   0x00000002   PAD
    0x0800356c   0x00000020   Data   RO         2549    Region$$Table       anon$$obj.o


    Execution Region RW_IRAM1 (Base: 0x20000000, Size: 0x00000f80, Max: 0x00005000, ABSOLUTE)

    Base Addr    Size         Type   Attr      Idx    E Section Name        Object

    0x20000000   0x00000014   Data   RW          177    .data               stm32f10x_rcc.o
    0x20000014   0x00000001   Data   RW         1499    .data               main.o
    0x20000015   0x00000003   PAD
    0x20000018   0x00000014   Data   RW         1562    .data               usart1_dma.o
    0x2000002c   0x0000000a   Data   RW         1666    .data               timer2.o
    0x20000036   0x00000004   Data   RW         1768    .data               key.o
    0x2000003a   0x00000002   PAD
    0x2000003c   0x0000004e   Data   RW         2089    .data               uart_data_x.o
    0x2000008a   0x00000002   PAD
    0x2000008c   0x00000380   Zero   RW         1561    .bss                usart1_dma.o
    0x2000040c   0x0000000c   Zero   RW         1809    .bss                device_id.o
    0x20000418   0x000002f4   Zero   RW         1869    .bss                game_main.o
    0x2000070c   0x00000214   Zero   RW         2087    .bss                uart_data_x.o
    0x20000920   0x00000060   Zero   RW         2427    .bss                c_w.l(libspace.o)
    0x20000980   0x00000200   Zero   RW           86    HEAP                startup_stm32f10x_md.o
    0x20000b80   0x00000400   Zero   RW           85    STACK               startup_stm32f10x_md.o


==============================================================================

Image component sizes


      Code (inc. data)   RO Data    RW Data    ZI Data      Debug   Object Name

         0          0          0          0          0       4540   core_cm3.o
        36         10          0          0         12        990   device_id.o
      4536       1614          0          0        756      24567   game_main.o
       228         34          0          4          0       2094   key.o
       120         18          0          0          0        969   led_run.o
       194         30          0          1          0       2284   main.o
       152         30          0          0          0     205213   misc.o
        64         26        236          0       1536        784   startup_stm32f10x_md.o
       514         26          0          0          0       5344   stm32f10x_dma.o
       306          0          0          0          0       2980   stm32f10x_gpio.o
        26          0          0          0          0       3650   stm32f10x_it.o
       308         38          0         20          0       4754   stm32f10x_rcc.o
       230         42          0          0          0       3212   stm32f10x_tim.o
       478          6          0          0          0       6870   stm32f10x_usart.o
       328         28          0          0          0      54953   system_stm32f10x.o
       456         94          0         10          0       3334   timer2.o
      2766        318          5         78        532      24359   uart_data_x.o
      1124        156          0         20        896      24155   usart1_dma.o

    ----------------------------------------------------------------------
     11878       2470        273        140       3732     375052   Object Totals
         0          0         32          0          0          0   (incl. Generated)
        12          0          0          7          0          0   (incl. Padding)

    ----------------------------------------------------------------------

      Code (inc. data)   RO Data    RW Data    ZI Data      Debug   Library Member Name

         8          0          0          0          0         68   __main.o
       312          4         17          0          0         92   __printf_flags_wp.o
        14          0          0          0          0         68   __printf_wp.o
         0          0          0          0          0          0   __rtentry.o
        12          0          0          0          0          0   __rtentry2.o
         6          0          0          0          0          0   __rtentry4.o
        52          8          0          0          0          0   __scatter.o
        26          0          0          0          0          0   __scatter_copy.o
        28          0          0          0          0          0   __scatter_zi.o
        44          0          0          0          0        108   _printf_char.o
        48          6          0          0          0         96   _printf_char_common.o
        36          4          0          0          0         80   _printf_char_file.o
         6          0          0          0          0          0   _printf_d.o
       120         16          0          0          0         92   _printf_dec.o
       178          0          0          0          0         88   _printf_intcommon.o
         0          0          0          0          0          0   _printf_percent.o
         4          0          0          0          0          0   _printf_percent_end.o
         6          0          0          0          0          0   _printf_s.o
        82          0          0          0          0         80   _printf_str.o
        18          0          0          0          0         80   exit.o
         8          0          0          0          0         68   ferror.o
         6          0          0          0          0        152   heapauxi.o
         2          0          0          0          0          0   libinit.o
         2          0          0          0          0          0   libinit2.o
         2          0          0          0          0          0   libshutdown.o
         2          0          0          0          0          0   libshutdown2.o
         8          4          0          0         96         68   libspace.o
        24          4          0          0          0         84   noretval__2printf.o
        68          0          0          0          0         68   rt_memclr.o
        78          0          0          0          0         80   rt_memclr_w.o
       138          0          0          0          0         68   rt_memcpy_v6.o
       100          0          0          0          0         80   rt_memcpy_w.o
         2          0          0          0          0          0   rtexit.o
        10          0          0          0          0          0   rtexit2.o
        74          0          0          0          0         80   sys_stackheap_outer.o
         2          0          0          0          0         68   use_no_semi.o
         2          0          0          0          0         68   use_no_semi_2.o

    ----------------------------------------------------------------------
      1538         46         19          0         96       1736   Library Totals
        10          0          2          0          0          0   (incl. Padding)

    ----------------------------------------------------------------------

      Code (inc. data)   RO Data    RW Data    ZI Data      Debug   Library Name

      1528         46         17          0         96       1736   c_w.l

    ----------------------------------------------------------------------
      1538         46         19          0         96       1736   Library Totals

    ----------------------------------------------------------------------

==============================================================================


      Code (inc. data)   RO Data    RW Data    ZI Data      Debug   

     13416       2516        292        140       3828     368672   Grand Totals
     13416       2516        292        140       3828     368672   ELF Image Totals
     13416       2516        292        140          0          0   ROM Totals

==============================================================================

    Total RO  Size (Code + RO Data)                13708 (  13.39kB)
    Total RW  Size (RW Data + ZI Data)              3968 (   3.88kB)
    Total ROM Size (Code + RO Data + RW Data)      13848 (  13.52kB)

==============================================================================

